:020000024000BC
:105000003DB8F3960000000000020000C846020010
:105010000000000000000000000000000000000090
:10502000FFFFFFFFFFFFFFFFFFFFFFFFFFFFFFFF90
:10503000FFFFFFFFFFFFFFFFFFFFFFFFFFFFFFFF80
:10504000FFFFFFFFFFFFFFFFFFFFFFFFFFFFFFFF70
:10505000FFFFFFFFFFFFFFFFFFFFFFFFFFFFFFFF60
:10506000FFFFFFFFFFFFFFFFFFFFFFFFFFFFFFFF50
:10507000FFFFFFFFFFFFFFFFFFFFFFFFFFFFFFFF40
:10508000FFFFFFFFFFFFFFFFFFFFFFFFFFFFFFFF30
:10509000FFFFFFFFFFFFFFFFFFFFFFFFFFFFFFFF20
:1050A000FFFFFFFFFFFFFFFFFFFFFFFFFFFFFFFF10
:1050B000FFFFFFFFFFFFFFFFFFFFFFFFFFFFFFFF00
:1050C000FFFFFFFFFFFFFFFFFFFFFFFFFFFFFFFFF0
:1050D000FFFFFFFFFFFFFFFFFFFFFFFFFFFFFFFFE0
:1050E000FFFFFFFFFFFFFFFFFFFFFFFFFFFFFFFFD0
:1050F000FFFFFFFFFFFFFFFFFFFFFFFFFFFFFFFFC0
:10510000FFFFFFFFFFFFFFFFFFFFFFFFFFFFFFFFAF
:10511000FFFFFFFFFFFFFFFFFFFFFFFFFFFFFFFF9F
:10512000FFFFFFFFFFFFFFFFFFFFFFFFFFFFFFFF8F
:10513000FFFFFFFFFFFFFFFFFFFFFFFFFFFFFFFF7F
:10514000FFFFFFFFFFFFFFFFFFFFFFFFFFFFFFFF6F
:10515000FFFFFFFFFFFFFFFFFFFFFFFFFFFFFFFF5F
:10516000FFFFFFFFFFFFFFFFFFFFFFFFFFFFFFFF4F
:10517000FFFFFFFFFFFFFFFFFFFFFFFFFFFFFFFF3F
:10518000FFFFFFFFFFFFFFFFFFFFFFFFFFFFFFFF2F
:10519000FFFFFFFFFFFFFFFFFFFFFFFFFFFFFFFF1F
:1051A000FFFFFFFFFFFFFFFFFFFFFFFFFFFFFFFF0F
:1051B000FFFFFFFFFFFFFFFFFFFFFFFFFFFFFFFFFF
:1051C000FFFFFFFFFFFFFFFFFFFFFFFFFFFFFFFFEF
:1051D000FFFFFFFFFFFFFFFFFFFFFFFFFFFFFFFFDF
:1051E000FFFFFFFFFFFFFFFFFFFFFFFFFFFFFFFFCF
:1051F000FFFFFFFFFFFFFFFFFFFFFFFFFFFFFFFFBF
:105200001858002055C10100537B020041C1010024
:1052100041C1010041C1010041C101000000000085
:10522000000000000000000000000000E9C20100D2
:1052300041C10100000000008DC2010041C1010018
:10524000ADC40100E1D50200ADC40100ADC4010050
:10525000ADC40100ADC40100ADC40100ADC4010086
:10526000B1D50200ADC40100ADC40100CBD5020030
:10527000ADC40100ADC40100ADC40100ADC4010066
:10528000ADC40100ADC40100ADC40100ADC4010056
:10529000ADC40100ADC40100ADC40100ADC4010046
:1052A000ADC40100ADC40100ADC40100ADC4010036
:1052B000ADC40100ADC40100ADC40100ADC4010026
:1052C000ADC40100ADC40100ADC40100ADC4010016
:1052D000ADC40100ADC40100ADC40100ADC4010006
:1052E000ADC40100ADC40100ADC40100ADC40100F6
:1052F000ADC40100ADC40100ADC40100ADC40100E6
:1053000053B94AB9002908BF00281CBF4FF0FF312C
:105310004FF0FF3000F00CB8ADF1080C6DE904CE91
:105320000BF0C6FADDF804E0DDE9022304B07047B3
:10533000704700BF2DE9F00791E8F807B2E80210C6
:105340005B1854EB0C04B2E802104D4156EB0C060E
:10535000B2E802104F4158EB0C08B2E8021059EBCA
:1053600001095AEB0C0A80E8F80780410130BDE8DA
:10537000F00770472DE9F00791E8F807B2E802104E
:105380005B1A74EB0C04B2E802108D4176EB0C064C
:10539000B2E802108F4178EB0C08B2E8021079EB0A
:1053A00001097AEB0C0A80E8F80780414042BDE829
:1053B000F00770472DE9F007524290E87800B1E815
:1053C00080071740DB1918EA020854EB080419EAB1
:1053D000020955EB09051AEA020A56EB0A0678C0DB
:1053E00090E87800B1E8800717407B4118EA02088E
:1053F00054EB080419EA020955EB09051AEA020AF6
:1054000056EB0A0678C080410130BDE8F0077047CE
:105410002DE9F007524290E87800B1E88007174084
:10542000DB1B18EA020874EB080419EA020975EBA1
:1054300009051AEA020A76EB0A0678C090E87800B5
:10544000B1E880071740BB4118EA020874EB080472
:1054500019EA020975EB09051AEA020A76EB0A064F
:1054600078C080414042BDE8F00770472DE9F00167
:1054700052424FF0040890E8300091E8C000A31BAE
:105480001340E41AF618EB1B1340ED1AFF1830C056
:10549000C0C1B8F10108EED1BDE8F001704700BF0E
:1054A00000B592E8DC072DE9DC07B1E8805702B4CB
:1054B000A7FB02510A95A8FB020BE7FB6310E9FB6F
:1054C00062B00B91A8FB0351EAFB6201E7FB64B5F4
:1054D000E7FB6605E8FB6615CDF830B0A9FB03B61F
:1054E000EAFB6316ECFB6356E8FB640BE9FB641B09
:1054F000EAFB645BECFB646B0D90ACFB0230059C3B
:10550000EEFB6250E9FB6460EAFB64B0E7FB6431E8
:10551000E8FB6451069CE8FB6461E9FB64B1EAFBCB
:1055200064010E93A7FB0432079CE7FB6462E8FB6F
:1055300064B2E9FB6402EAFB6412049CE9FB645375
:10554000EAFB6463089CE7FB64B3E8FB6403E9FBE4
:105550006413EAFB64230F955DF8049B99E8000649
:10556000DDF80080A9FB0854EAFB68B4DDF8108080
:10557000ECFB6804EEFB6814E9FB6824EAFB683482
:10558000DDF80480EEFB6865E9FB68B5EAFB6805B9
:10559000DDF81480ECFB6815EEFB6825E9FB683547
:1055A000EAFB68450F96DDF80880AEFB0876E9FB5C
:1055B0006806EAFB6816DDF81880ECFB6826EEFB4F
:1055C0006836E9FB6846EAFB6856DDF80C80ECFBC0
:1055D00068B7EEFB6807E9FB6817EAFB6827DDF8A8
:1055E0001C80ECFB6837EEFB6847E9FB6857EAFB79
:1055F000686708B000BD00BF2DE9F14F87B0FFF725
:105600004FFFDDF81C8008F1200888E8FF00FFBC90
:1056100087E87F08BDE8F08F00B591E89857A3FBB5
:1056200003520195A3FB0401E3FB6420E3FB671035
:105630000292A3FB0752E3FB6802E4FB6415E3FB61
:105640006805E3FB69250391A4FB07B6E3FB692624
:10565000E3FB6A56E4FB670BE4FB682BE3FB6A5B46
:10566000E3FB6C6B0490A4FB0810E4FB6950E3FBC4
:105670006C60E3FB6EB0E7FB6721E4FB6951E4FB80
:105680006A61E3FB6EB1E4FB6E010592A7FB083291
:10569000E4FB6A62E4FB6CB2E4FB6E02E7FB6E12B1
:1056A000E7FB6853E7FB6963E4FB6CB3E7FB6C0360
:1056B000E7FB6E13E8FB6E230695A7FB0954E7FB97
:1056C0006AB4E7FB6C04E8FB6C14E8FB6E24E9FBAE
:1056D0006E34E8FB6865E7FB6AB5E8FB6A05E8FB42
:1056E0006C15E9FB6C25E9FB6E35EAFB6E45079608
:1056F000A8FB0976E8FB6A06E9FB6A16E9FB6C265B
:10570000EAFB6C36EAFB6E46ECFB6E56E8FB69B7CB
:10571000E9FB6907E9FB6A17EAFB6A27EAFB6C37D2
:10572000ECFB6C47ECFB6E57EEFB6E6700BD00BFF9
:105730002DE9F14F87B0FFF76FFFDDF81C8008F10E
:10574000200888E8FF00FFBC87E87F08BDE8F08FED
:1057500030B44FF0000310F8014B11F8015B013A2F
:1057600084EA050443EA0403F5D1A3F101034FEAF7
:10577000D37030BC704700BF4FF0000310F8012B0E
:10578000013943EA0203F9D1A3F101034FEAD370CF
:10579000704700BF30B411F8014B12F8015B6C4048
:1057A00000F8014B013BF6D130BC70472DE9F00702
:1057B00091E8F807B2E802105B1854EB0C04B2E869
:1057C00002104D4156EB0C06B2E802104F4158EB67
:1057D0000C08B2E8021059EB01095AEB0C0A894196
:1057E000B3F1FF3374F1FF3475F1FF3576F1000644
:1057F00077F1000778F1000879F101097AF1FF3AB1
:1058000051F100015B184C414D4156F1000657F132
:10581000000758F1000859EBD1795AEB010A80E8EA
:10582000F807BDE8F00770472DE9F00791E8F807A1
:10583000B2E802105B1A74EB0C04B2E802108D415E
:1058400076EB0C06B2E802108F4178EB0C08B2E858
:10585000021079EB01097AEB0C0A89415B184C4183
:105860004D4156F1000657F1000758F1000859EB79
:10587000D1795AEB010A80E8F807BDE8F0077047D4
:1058800018EB040859EB05095AEB060A5BEB070B0A
:105890005FF0000C4CF1000C18EB050859EB060901
:1058A0005AEB070A5BEB070B50EB0C005FF0000CA8
:1058B00051EB0C0152EB0C0263414CF1000CB8EBC4
:1058C000070879F100097AF1000A7BEB040BA84183
:1058D000B141A241B3416CF1000CBBEB050BB041EF
:1058E000B941AA41BB416CF1000C4CF001068CF0AF
:1058F000020718EB060859EB6C095AEB6C0A7BEBB4
:105900006C0B70EB6C0471EB6C0572EB670653EB80
:105910006C076CEB6C0C18EB0C0059EB0C015AEBA0
:105920000C025BF1000354F1000455F1000556EB45
:10593000DC7657EB0C0770472DE9F14F87B0FFF786
:10594000AFFDDDF81080DDF81490DDF818A0FFF74A
:1059500097FFBDE8000FFFF793FF03B05DF8048BDE
:1059600088E8FF00BDE8F08F2DE9F14F87B0FFF721
:1059700053FEDDF81080DDF81490DDF818A0FFF775
:105980007FFFBDE8000FFFF77BFF03B05DF8048BDE
:1059900088E8FF00BDE8F08F2DE9F3472B4FC41DC9
:1059A0000D1E7B788DF8043024F00704BB788DF849
:1059B0000530064601A90CBF2046002000F0B6FBCA
:1059C00097F800807B784FF0000A984404445FFA0F
:1059D00088F8D1465FFA8AF343452DD3E01C20F0C6
:1059E0000304002D49460CBF2046002000F0AEFC09
:1059F000B978204471B1FB78FA7B033020F00304BE
:105A0000002D1A44D2B27B890CBF2046002000F042
:105A100011FD2044397B59B1BB784BB1073020F0E0
:105A20000704002D0CBF2046002004F053FC204446
:105A3000801B02B0BDE8F0873B7AFA79B9797879B2
:105A40000BF042FD0AF1010A8144C3E798080020E7
:105A50008FB572B6194B9D6AE5B9BFF34F8F1849E0
:105A6000184BCA6802F4E0621343CB60BFF34F8F58
:105A700000BFFDE7B4FBF6F4DAB20133002CF9D134
:105A800002F110036B440A2603F80C4C32B901A84A
:105A9000A847E2E7044600230A26EDE7531E04ACBC
:105AA00054FA83F4DAB2C3B2B3FBF6F706FB17334A
:105AB000303304F80C3CB0FBF6F0E7E79808002020
:105AC00000ED00E00400FA051FB5104B1A7A8DF8BE
:105AD0000920DA798DF8082002A89A795B79ADF867
:105AE0000C20ADF80A3003F0DFF918B1B52103201E
:105AF000FFF7AEFF012301A88DF804300CF06FFE14
:105B000008B1B921F3E705B05DF804FB980800205F
:105B100038B5054680B30AF09FFB10B94FF0FF304F
:105B200038BD07F095F9B0F5FA7FF7D8154C16484F
:105B3000A562002500F0B6F926222946204684F801
:105B40002C5084F82D500AF041FE01236370A3709D
:105B50001B23637140F21B33E380022323721F2354
:105B6000638108232373EFF3108472B600F03AFDCB
:105B70002CB962B62046D3E76FF01500D0E728466F
:105B8000CEE700BF98080020C9CA000010B5002861
:105B900037D1204C94F82C3083BB59B1002A33D034
:105BA000023905292DD8DFE801F003101E2C21242D
:105BB0001378637001210020FFF7EEFEB0F5803FFF
:105BC00025DA012384F82D3010BD9378E3B1D37822
:105BD000D3B113781A2B17D953781A2B14D9136809
:105BE000C4F80530E6E71378A370E3E71388638110
:105BF000E0E71388FF2B07D82373DBE74FF0FF3074
:105C0000E2E76FF02C00DFE76FF01500DCE76FF0E4
:105C10000B00D9E79808002070B50D460646F0B194
:105C2000E9B111F007041AD100F07AF8D0B130468A
:105C30000AF0BEFB0D4E214686F82E002846FFF7DF
:105C4000ABFE0DF0A8FD96F82E00214603F0B2F948
:105C5000FFF73AFF012386F82C30204670BD6FF025
:105C60001500FBE74FF0FF30F8E700BF9808002071
:105C700010B5084C94F82C302BB103F0ADF994F822
:105C80002E000AF0B1FB0BF00EFD002084F82C0072
:105C900010BD00BF9808002050B1074B03F114025B
:105CA00053F8041B40F8041B9342F9D100207047BD
:105CB0006FF01500704700BFBCFF0200074B93F860
:105CC0002D2010B532B993F82C401CB903F03CF9E3
:105CD000204610BD4FF0FF30FBE700BF98080020C2
:105CE000074B93F82D2010B532B993F82C401CB90E
:105CF00003F03EF9204610BD4FF0FF30FBE700BF38
:105D00009808002007C8024B83E80700002070476E
:105D1000C8080020014B9B68184700BFC808002036
:105D2000024B9868003818BF01207047C80800204F
:105D30002DE9F341284E031D04463360304603F03D
:105D40006BFE0228054607D1234920460AF04CFF86
:105D5000284602B0BDE8F081042836D13378072BFD
:105D600018D13E2000F04EF878B9F378327901A9C5
:105D700043EA02236846ADF800300BF05BF90028D7
:105D8000DCD053210820FFF763FE052000F07AF8ED
:105D90000028EAD0314620460AF08BFFB0F5817F1B
:105DA00001D37221EEE70028C8D0277894F802804A
:105DB000384600F027F80028C0D03E2FC8D1404612
:105DC00000F060F80028C3D1B8E70828C0D1024924
:105DD00020460AF038FFBBE7D4080020074B4FF0FD
:105DE000FF3141F6FF72C3E9001205490022C1E903
:105DF00000221F21C3E90212704700BF00000020EB
:105E0000180900203F280CD801380B4BC0F3421270
:105E100000F01F0053F8223023FA00F000F00100D8
:105E20007047FF2806D04038C0F34212034B00F001
:105E30001F00EFE701207047000000201809002034
:105E40000146074B006849681A4603C240F48C2299
:105E50001A6041F0107242F4FF625A60704700BF4E
:105E6000000000200246024B0068516803C37047DF
:105E7000180900200246024B0068516803C37047AE
:105E8000080000200138064BC0F3421203EB8203E6
:105E900000F01F009B6823FA00F000F0010070473B
:105EA00000000020014B1860704700BF200900204F
:105EB00010B5FFF793FF0CF0C8F9034B1B680446BD
:105EC00003B19847204610BD200900200B880288A6
:105ED000F0B5C3F30E049EB204F11803C57CC35A97
:105EE00005352A442B4497B213FA82F3013B4288CA
:105EF000B3FBF7F313FB07439BB29A42044A93BFE9
:105F000022EA0603324013439BB20B80F0BD00BF70
:105F10000080FFFF10B5114B00EB41041A78638934
:105F2000B3FBF2F303FB0223013A1A44B2F5706F9C
:105F3000027928BF00231A448378B2FBF3F0194496
:105F400003FB1020091AB1FBF3F003FB10131344F9
:105F50006FEA43436FEA5343638110BD2409002075
:105F600010B5104BC0B15A78022A04D040F2591132
:105F70001720FFF76DFD03225A70026812F0070127
:105F800002D04FF4AF71F3E75C685A6022440260BC
:105F9000C3E903119A6010BD0122C3E901005A70E0
:105FA000F9E700BF240900202DE9F041254E96F8BD
:105FB00001E00EF0FD0CBCF1010F04D040F27311B2
:105FC0001720FFF745FD91F80680B8F1080F02D9B8
:105FD00040F27511F4E7CF7997B34546022D726808
:105FE00038BF02257B1D5C0002EB43036A1E13448D
:105FF0006D422B408D884544013DC8F100022A4086
:106000004FF6FE75AA4202D94FF4C071D8E7BEF12F
:10601000030F12D106EB80001C1BC56815B140F2BE
:106020008511CDE7C460A770228084F803C0087A88
:1060300009682071080CE080218107FB023373603E
:10604000BDE8F081240900202DE9F041364C637849
:10605000012B65D0032B04D040F295111720FFF7D8
:10606000F7FCD4E901329A4202D04FF4CC71F5E743
:10607000A44600235CF80C6F23701D4601229E4647
:106080005CF82210571E49B108798A78FF2829D177
:1060900081F804E095423CBFD5B201230022002FD5
:1060A000EED003B12570256925B3002640F6FF67C1
:1060B000AB78F1B28B421DD905EB410328465F81D5
:1060C000FFF728FF0136F3E776B196F804808045A4
:1060D0000CD1B0780244FF2A0AD903B125704FF4DD
:1060E0009A71BBE7002FEFD00020F3E73846F1E7C5
:1060F0000871CFE7E56875B1002640F6FF67AB7819
:10610000F1B28B4207D905EB410328465F81FFF7C7
:1061100001FF0136F3E7042363700020BDE8F0813E
:10612000022360686370F9E724090020F0B585B0A8
:106130001B4E009004460D4630B17378022B02D0FE
:106140000020FFF7F3FF6846FFF70AFF154A2B7898
:10615000019208274FF43872002001A9ADF80820F9
:106160008DF80B308DF80C008DF80A70FFF71CFFCE
:106170006B780D4A01928DF80B304FF48872FF2333
:1061800001A90120ADF808208DF80C308DF80A70B7
:10619000FFF70AFFFFF758FF7068001B05B0F0BD5E
:1061A0002409002039A70100D7870100F8B54FF670
:1061B000FF730380184B03EB81030546D868B8B121
:1061C00086780379B3FBF6F206FB1233DBB219468D
:1061D0000A1D00EB4202B2F902705488002F09DB5D
:1061E0000131B1FBF6F206FB1211C9B28B42EFD1BD
:1061F0000020F8BDFF29FBD0C4F30E03C4782B8028
:1062000024B940F2C7211720FFF722FC5380BDE8D4
:10621000F8400BF038B900BF240900201E4B03EBF7
:10622000810370B5DC6805464CB3B0F5706F04D3DC
:1062300040F2D5211720FFF70BFC014620460BF05A
:1062400004F9FF28014604D02046BDE870400BF059
:106250001AB9A078B5FBF0F300FB1353DBB2194673
:106260000A1D04EB4206B6F90260002E09DB01317B
:10627000B1FBF0F200FB1211C9B28B42F0D1002049
:1062800070BDFF29FBD08B4204EB42021CBF0023F0
:10629000E3705580D8E700BF24090020094B03EBC9
:1062A000810310B5DC68014620460BF0CEF8FF28CC
:1062B000014604D02046BDE810400BF0E4B80020B1
:1062C00010BD00BF240900200F4B03EB810370B504
:1062D000DC680146064620460BF0B7F8FF28054665
:1062E00010D0014620460BF0CEF8E2882389014603
:1062F00043EA02433046984720462946FFF70AFE04
:10630000002070BD0320FCE72409002038B50E4BA7
:10631000827903EB82030446D86808B9022038BDAD
:106320008278E1799142F9D24B1CE37100EB410391
:106330005D89B3F90A30002BF3DBA5800BF0A3F8DD
:1063400020600020EBE700BF2409002070B5044660
:1063500010F003000E4603D049211820FFF778FB08
:106360000BF017F8054624B10348314604600BF0E2
:1063700010F8284670BD00BF380900202DE9F04F05
:106380001E4C85B092462268BDF83CB098468146C6
:10639000BDF838300D461AB95B211820FFF758FBBD
:1063A0001A460A21504603930AF09EFE5A460646B4
:1063B000092140460AF098FE3118074620680BF084
:1063C00013F8039BC9F8000018B9286005B0BDE8B0
:1063D000F08F84192C60D9F80000009352463146A2
:1063E0000A230AF033FE2868CDF838B00923424664
:1063F000394605B0BDE8F04F0AF028BE3809002044
:1064000070B50E4604460AF078FE054630460AF09E
:1064100074FE044B2A1821461868BDE870400BF042
:106420000DB800BF38090020014B18680AF0CFBF33
:1064300038090020F8B511441D4EC9B210F003050B
:10644000317003D04E210920FFF702FB1F2B19D812
:106450009B009BB2033323F003039BB208B170602F
:10646000338101EB81047668E2004FF0010C00EB10
:10647000C404EFB2B94212D8D01D03FB010020F0D2
:106480000700F8BDFF2B4FEA430204D9FF339342C4
:10649000DFDB93B2DEE77C2AFBDC7C23DAE710B19A
:1064A00086F800C07460013528361C44E1E700BF5F
:1064B0003C09002038B5144A147853680021C8B24A
:1064C000844203D8A9210920FFF7C2FA18460131F6
:1064D00005782833002DF2D0012412894470002160
:1064E000446881708161C161920800F12001051D3D
:1064F00021F8022B994245F8044B1444F8D10023AB
:106500004361037038BD00BF3C0900202DE9F8430A
:106510004B7880460C4602F0040602F0FB07D3B12C
:10652000DFB12F4BD4F804901D89BFBB01236370EA
:10653000AD08A761E76104F120034A46211D04F17B
:10654000280023F8025B984241F8042B2A44F8D132
:106550000023636101E0002FE3D0002E4FF0FF0322
:1065600018BF0226A370A3191B7D032B03D1022F92
:106570001CBF0136F6B2A31901221A7506F10C02EE
:1065800004EB8606002324F812307268A370C8F862
:106590000020A8F804304046BDE8F883002114220A
:1065A0006170A0180AF012F9B5F5FF7F0FD26B08E1
:1065B000ED1AADB209EB0502C4F804902584A2607F
:1065C0006384C4F80C90A5842261E384C5E7B5F523
:1065D000EE6F4FF0FF03EBD940F27265EAE700BFC0
:1065E0003C090020134B012200214FF0FF309A603C
:1065F000C3F80012C3F80803C3F80015C3F8042554
:106600009A60C3F80803C3F80015C3F804250A49C3
:106610000A4A03F580334FF40040C3F80825C1F857
:106620008000BFF34F8FBFF36F8FC1F88001C3F8B5
:106630000825704700F0004000E100E00000F63F50
:106640000A461A2302F8033B0448C368C1F8033022
:106650000369536043699360704700BF4809002095
:10666000024B5A8C02435A845B6A1847480900203F
:10667000014B00215B6A18474809002010B5114CF6
:1066800005F0F8FC05F056F9208DFFF7F1FF237EA9
:106690006BB122460C4952F80C3BE36063685360CF
:1066A000A368936004F1190002220CF070FCE36A05
:1066B00094F82A1094F82B009847002384F830307F
:1066C00010BD00BF4809002041D60000034B93F8DD
:1066D00030300BB1FFF7D2BF704700BF4809002030
:1066E00070B51D4CA56B236CE36395F8A33006468B
:1066F00094F844000BB10430C0B295F86D102EB977
:10670000FF2803D195F86C308B4201D005F07CFB5B
:1067100095F8A330D3B1A06C05F02EFE012384F8C8
:106720006830D5E94023A16CE06BC4E9182305F07B
:10673000BFF816B9304605F05DFE95F86C100020E4
:1067400005F0A2FE022384F8303070BDE06B05F046
:1067500013FE05F0EFF8ECE7480900202DE9F743B8
:10676000404C94F83030A66B012B05460F465FFA7B
:1067700083F804D040F25C412720FFF769F996F8CE
:1067800090303BB1002186F890100420FFF768FF9D
:1067900086F89280A16F0B7803F00303032B05D1D9
:1067A00096F8963013B90220FFF75AFFA26F1378BC
:1067B00003F00303032B03D05378002B3ED10123B6
:1067C00086F8963096F8A330B3B1D6E94001A36BB2
:1067D00094F84490C4E918014FF0010893F86D0053
:1067E00084F868800AF061FF0022034600921E4987
:1067F0004A46404605F016F8DDB9D7B1E36F2846A2
:106800009847B0B194F82A309BB994F88030D906F3
:10681000C3F300125CBF236C1D78D4F884305CBFD6
:10682000C5F30015C5F1010553B9B4F888303BB183
:1068300032B903B0BDE8F043FFF720BF0223BFE742
:10684000638C9A0709D5A36FDB78022BF1D1002066
:1068500003B0BDE8F043FFF743BF002DE9D1002BA3
:10686000F5D0E6E7480900209809002008B5094B53
:1068700093F83020022A04D040F23D212720FFF770
:10688000E7F8DA7A42F00102DA72BDE80840FFF771
:10689000F5BE00BF48090020044B93F8302002F0F9
:1068A000FF000AB9187670470C207047480900208D
:1068B0000A4B0B4A70B506460D461A60FFF7ECFF0F
:1068C00018B1DF212720FFF7C3F8064C012104F19E
:1068D0008A000CF088FA2664A56470BD4000002090
:1068E0008CE0000048090020024B012283F8AC2014
:1068F000704700BF480900202DE9F043814C85B066
:1069000002AE86E8030094F830100C9F01F0FF05FA
:1069100011B90AB103B127B94FF4A8712720FFF7C5
:1069200097F896E8030004F1340C8CE8030084F82F
:10693000AC5084F82A5084F8AD5084F82B5084F879
:10694000AE5065842585A56BE3676262E76205F05A
:1069500099FA04F0EFFF95F9700005F01FFB686AE3
:1069600005F0FCFCE86905F01FFB95F8B30005F0A5
:1069700041FBA36B93F80C320BB105F071FA95F85B
:106980006D10012005F006FC002800F0B7805E4B7A
:106990005E4E186805F0E8FC2B69C4F8B0306B69EE
:1069A000C4F8B43005F58C7705F584731868596818
:1069B000324603C20833BB421646F7D1D5F8182138
:1069C000C4F869205A68524B5A60A36B93F89D2013
:1069D000A2F12501012993F86C100E4603D993F812
:1069E0009E00252856D193F8B6322BB1012E03D044
:1069F000012B14BF0226012605F134073146384623
:106A00000CF003FB31460CF02BF8B5F8403095F84C
:106A10006D10834228BF0346384684F8B8300CF026
:106A2000E4FA95F86D1095F8A360B5F84880082948
:106A300008BF04210CF014F80EB9043080B24045B0
:106A400028BF404695F8A3305FFA80F884F8448068
:106A50009BB1D5E9406795F86D004FF00109C4E995
:106A6000186784F868900AF020FE0022034600921E
:106A700026494246484604F0D5FE0120FFF730FE85
:106A8000244BD3F8503523F00803032B2AD14FF4BD
:106A9000FD7143E7203A012A0CD8232893F83E21C0
:106AA0000AD012F0010319D19207A5D5012918BF08
:106AB0000226A1E723280DD193F83E2193F86530F3
:106AC000134013F001020BD19B0795D5012908BF94
:106AD0000E46ECE7042908BF08268DE71E468BE723
:106AE000164689E7002323606360A360B5F89430FD
:106AF00063802B88238095F8B330237105B0BDE8FF
:106B0000F08300BF480900204000002098090020C1
:106B1000B10900200010004008B50C4B93F830205C
:106B20001AB9BDE80840FFF7A9BD93F83020022A42
:106B300004D040F213212720FEF78AFF9B6BD3F885
:106B40002002BDE8084005F029BC00BF480900202C
:106B5000014B1876704700BF48090020014B93F89D
:106B6000AE00704748090020024B188DC0F380200A
:106B7000704700BF48090020014B93F8AD007047F3
:106B8000480900202DE9F3411E4D8207AC6B0646F3
:106B90000F4622D5D5F8843023B940F24D41272045
:106BA000FEF756FFB5F88820E96B1846033291F8D6
:106BB000018009F093FD0DF1020201A9E863D5F807
:106BC000B4000AF0DCFB01980AF0C3FB0122386034
:106BD0004146D5F8B4000AF068FBF3070ED5D4E9B6
:106BE0004032013342F10002C4E9403294F8983057
:106BF000012B0CBF0023012384F8983002B0BDE8BC
:106C0000F08100BF480900202DE9F04F9C4C002383
:106C100087B0CDE9043394F83030A76B022B81465E
:106C2000884604D040F2CF412720FEF711FF238D84
:106C30005B0606D44020FFF71BFD238D43F0400385
:106C4000238597F8A330B9F1000F00F00A81A3B1B2
:106C500004F09EFE04F082FE78B9E36B5A7862B1CC
:106C60001B7897F89820C3F3C0039A4205D10123FB
:106C700084F82B30FFF702FD47E1E36B5978A4F865
:106C8000881011B3D4F8B4000AF0E5FAC4F884000F
:106C9000238D97F8972043F480732385E36B1B784B
:106CA000C3F380039A4200F0B180A56B95F896304B
:106CB000002B3ED0022B12D1D4F8B00004A90AF068
:106CC00061FA28B940F2CB31AEE7C4F88410DFE7AF
:106CD000D5E93E32013342F10002C5E93E3295F872
:106CE0009230002185F8961023B185F8921010207B
:106CF000FFF7B6FC95F891309BB1002685F89160BE
:106D000002F028FA10B940F2E2318DE7314608204E
:106D1000FFF7A6FCD5E93E32013342F10002C5E996
:106D20003E3295F89730012B0CBF0023012385F8E4
:106D30009730238D43F4806323854FF0000BE16B84
:106D400097F898200D78C5F3C0039A427ED105F0DC
:106D50000305032DA66B5BD0002D64D196F8983007
:106D6000013B18BF012386F89830E36B5B7833B1A1
:106D7000D6E94032013342F10002C6E9403297F8C9
:106D8000A23093B1D7E93E23A16B002691F86C00A5
:106D900084F86860C4E918230AF087FC3949009632
:106DA0000346FB22304604F03DFDB8F1000F6BD1E5
:106DB00094F8AD30012B67D8E36F01209847002885
:106DC00062D094F82AA0BAF1000F5DD1A66B94F8B6
:106DD000443096F8A3208DF80D80002A40F098806A
:106DE000FF2B96F86C1003D196F86D308B4202D0D1
:106DF000FF2005F009F896F89630032B00F22F815A
:106E0000DFE813F089000E0111012401CB4696E75B
:106E1000238D012043F4006386F890002385FFF75B
:106E20001FFC00259AE74B78002BFAD0228DD4F86E
:106E3000845042F400622285002DA0D0FB2B07D89D
:106E400094F8AC305BB12020FFF712FC002596E7E8
:106E500094F82A3043F0100384F82A30F6E74D46C0
:106E60007CE70BB104F0CAFD94F8AD30013384F82F
:106E7000AD30238D002543F400732385AB467EE7B8
:106E8000480900209809002005F01EFB4FF001087A
:106E90001DB105A90220FFF775FEBBF1000F0DD053
:106EA000B4F80720B4F805301343B7F8942013431F
:106EB0001EBFB4F809300133A4F80930B9F1000F4E
:106EC00000F0D580B4F805300133A4F80530002374
:106ED00084F8AD30694803F037F9049840B10AF0FE
:106EE00038FAA16B00234372082201300CF03DF800
:106EF000059B33B1A16B00221A72059810220CF089
:106F000034F8B8F1000F7FF4B5AE07B0BDE8F08FEC
:106F10000433DBB264E794F8B830ADF80E3058486B
:106F2000A6F85C3002F006F900285DD0A16F802041
:106F3000FFF796FB012386F8913096F89730A26F01
:106F4000DB0003F00801137803F0F3030B4396F81A
:106F50009810890001F004010B4323F0100103F0A5
:106F60000303032B117002D1D378022B0FD0D4F876
:106F7000B0000AF04FF940B9A36F1B7803F0030388
:106F8000032B04D002F0FCF808B94FF0100AA06FF0
:106F900003784AEA030A80F800A096F8A230002B92
:106FA00060D04378002B5DD0A06C05F0E5F900239C
:106FB00084F86830D6E93E23A16FA06CC4E9182399
:106FC00004F076FC96F86D10012005F05DFAA26FD2
:106FD0001188A4F8801091782A4A012384F8AE30F1
:106FE000917084F8303053E7D4F8B0000DF10D0201
:106FF0000DF10E010AF0A3F8A06788B196F8DB3016
:1070000073B99DF80D302BB903808370A06F0121F7
:107010000BF0E9FEBDF80E10A06F0BF075FF8CE7CA
:10702000194BA36789E7B6F85C30D4F8B000ADF827
:107030000E300DF10D020DF10E010AF080F8A0677F
:1070400000287FF47AAF40F2D621EDE50C4802F03B
:1070500071F800287FF471AF40F2DF21E4E54FF4CE
:107060003B71E1E505F088F904F064FCAAE7B4F8A7
:1070700007300133A4F807302CE700BF7C0900205B
:10708000C0090020C8090020D20900206DD80000E6
:1070900009DC00005DD70000CDD6000038B5074DF3
:1070A000044600F1510128680BF012FE94F85010CC
:1070B0002868BDE838400BF019BE00BF040A002064
:1070C000F8B504460E466588407F15F00401134666
:1070D00018BF04F15F01324602F0FAF9C207054613
:1070E0000BD5012384F85030607F02F055FA036815
:1070F000C4F851308388A4F85530AB070CD5094E3D
:107100000127306884F85E7004F15F010BF0E7FD41
:10711000306839460BF0F3FD85F00400C0F38000C1
:10712000F8BD00BF040A002038B5C38D0E4D0133F1
:10713000C385AB7C04462BB105F08CF904F01AFB37
:107140000023AB7400232B7194F869302BB101211B
:107150002046BDE838400AF006BF637C13B1E28DDB
:107160009A42F4D20021F3E7040A002070B5294CBA
:107170002379022B07D02379032B04D040F6EC416E
:107180002D20FEF765FCA0B90125A37C1BB105F0FD
:1071900061F904F0EFFA002D3AD0E0690AF05BFEE5
:1071A000002830D004F066FF236ABDE870409B6879
:1071B00018472168E26911F8095B02F15103E809F7
:1071C00092F850200BF077FB0028DDD020680021DA
:1071D0000BF0BBFD0028D7D02379E069022B05D046
:1071E0002379032B02D040F6C541C9E72379226AEF
:1071F00003F180435269023B05F00F0152F823303E
:1072000098470546C1E7E069BDE87040FFF78CBFCD
:1072100070BD00BF040A00202DE9F04104460E466F
:1072200019B300F1280528460AF051FCA0B963887B
:107230001A072DD528460AF061FC074628460AF0B1
:1072400046FC381AC0B20AF069FC594A93680344F4
:10725000284693600AF017FC28460AF019FC04F04F
:10726000C9FE2179252004F0CFFD514D94F85E70C0
:107270002868002303806388103B0D2B61D8DFE86A
:1072800003F05E605A0C603F606060606060603F69
:107290002046BDE8F041FFF747BF002102F088FA21
:1072A0002A68137823F0200343F02003137020464C
:1072B000FFF7F4FE638823F008039BB2152B05D07B
:1072C00094F83820616B28680BF020FD286805F0E1
:1072D00053F804232B7136B16388102B36D12179F2
:1072E000002004F08DFE6388103B0D2B5AD8DFE898
:1072F00003F05C59535359535959595959595953D2
:10730000012102F055FA2868037823F0200343F0A6
:107310002003037047B104F15F010BF0E0FC012191
:1073200028680BF0ECFCC2E704F158010BF0D7FC25
:1073300094F85710F4E7062102F03AFAB7E7022171
:10734000FAE740F249612D20FEF782FB04F128089C
:107350004046EF680AF0D2FB064640460AF0B7FB0B
:10736000013E301A61882822C0B200F09FFC638879
:107370001B07074406D5AB681F440AF0CCFB384412
:10738000C4F8D00022793946002004F06BFF0028B1
:10739000A9D140F66151D6E721790120BDE8F0413D
:1073A00005F072B840F67551CDE7BDE8F08100BF39
:1073B000040A002038B54388102B044604D1BDE8E8
:1073C00038400121FFF728BF0B4DAB7C23B104F0FF
:1073D000B7F9402005F032F8286804F0CDFF608846
:1073E00010F0040002D1217905F04EF8002005F0DC
:1073F00001F802232B7138BD040A0020024B012141
:10740000D869FFF709BF00BF040A002010B5134C6C
:10741000A37C1BB105F01EF804F0ACF9E0690AF09A
:107420001AFD70B12379E069022B0FD12379226A0A
:1074300003F18043D268023BBDE8104052F823308C
:107440001847E069BDE81040FFF76EBE2379032BB3
:10745000ECD040F6F4312D20FEF7FAFA040A0020B1
:1074600018B1084BD869FFF75FBE51B1054A1379CF
:10747000116AD069096903F18043043B51F8233054
:1074800018477047040A00202DE9F043032985B00E
:10749000054690467ED090F8683003F0FF02002B3E
:1074A0007DD1052904D16B88DE0760D5002A5ED125
:1074B0000127DFF8F09099F81260B6B10BF030FABE
:1074C000082888F8000014D002AA0DF1070101F085
:1074D000CFFF20B940F63D712D20FEF7B9FA9DF897
:1074E000070002A90CF040F8064698F80030082B77
:1074F00008D1D9F8001011F8030BC0F380100CF07C
:1075000033F80646D9F8001095F8572011F8030B08
:1075100005F15803C0F380100BF0CDF9D9F8001035
:10752000044611F8030BC0F380100BF0EFF981460D
:1075300002F044F8014640B1B9F1080F1BD04846AB
:1075400001F060FF80F00101C9B298F8000008283E
:1075500015D094B96B7F1C1A604260416B885A0742
:1075600006D421B996B9EB7C93B1BB4210D0002070
:1075700005B0BDE8F0830021E7E70120EEE714B194
:1075800081F00104E4B204F00100E7E73046EFE7E0
:107590000120EDE743889B07E9D5022789E7052904
:1075A000E5D180E7040A0020032973B5054604D01D
:1075B000052955D0012002B070BD08230DF1070246
:1075C0008DF80730FFF760FF0028F3D02B7C294EA1
:1075D0000BB39DF8070095F8B630E3B92B7885F822
:1075E000B730082805F1B9022BD005F1B80101F038
:1075F0003FFF20B940F6BA712D20FEF729FA95F821
:10760000B83043F0020385F8B8301B49022205F177
:10761000AE000BF0AAFC306800240421048002F0C4
:10762000C7F82846FFF73AFD95F84020E96B306827
:107630000BF07BFB30680523337104F09DFE204680
:10764000B9E73068034613F8031BC1F3801185F8CE
:10765000B810D0F80310C5F8B9109B889380D4E710
:10766000064B1B6823B1984780F00100C0B2A2E727
:107670001846A0E7040A0020E1860100440000202B
:107680002DE9FF4708230DF10702052104468DF877
:107690000730FFF7F9FE074620B90027384604B047
:1076A000BDE8F0877B4E3168F27C11F8030B06F1E0
:1076B0001403C0F380100BF0FEF880460028ECD1D4
:1076C000256A326895F8A530117803EA511303F062
:1076D000010385F8A530D2F80F30EB61537D117DA1
:1076E0001B0443EA0123D17C0B436B62B2F81900FF
:1076F0000BF000FA3368A86181460146987D0BF0D3
:10770000FDF93368A8854946B3F817000BF0FFF977
:107710003368A862B3F81B202A84B3F81D206A845A
:1077200093F8242002F01F0285F8B120D3F81F003F
:10773000029093F823308DF80C3002A905F1A500D2
:107740000BF01CFA336893F824305B0985F80D328E
:1077500040F20113A5F86C304FF0FF0A05F1340038
:1077600085F86EA0414602F00FFA284694F91210EF
:107770000BF0B6F9256A84F873802B88A4F874306E
:1077800084F891A04FF6FF73A4F89230A8699DF891
:1077900007900BF0A9F92B8CA4F88C306B8CA4F813
:1077A0008A00A4F88E3095F80D3284F89030237F4B
:1077B00004F17E0283B394F85030012B2CD194F85D
:1077C000563003F0C003402B26D1D4F85130C4F812
:1077D0007E30B4F85530306893800346B9F1080F15
:1077E00013F8032BC2F3801284F87720D0F803003B
:1077F00004F1780204F1840144D0C4F884009B8829
:107800008B80484604F1770101F032FE40B940F622
:107810004A412D20FEF71CF90023C4F87E30DAE738
:1078200094F8773043F0020384F877301A49022243
:1078300004F16A000BF099FB236A18491A88A4F82E
:10784000AB2093F8A53084F8AD30022204F1A200F9
:107850000BF08BFB124B206A1B68002232710BB1BC
:10786000214698473368226AD3F80310C2F8031000
:10787000B3F80710A2F807101B78226AC3F380132D
:1078800093700BE7A0679B8893800023C4F8843033
:107890008B80CBE7040A0020F9860100CB8601002B
:1078A0004800002010B50B4B1A798AB11A79DC69AF
:1078B000022A02D01A79032A05D19B7C1BB104F05D
:1078C000C9FD03F057FF2046BDE81040FFF72CBC70
:1078D00010BD00BF040A002010B50948037903F069
:1078E000FF0453B918222146043008F06FFF04F05A
:1078F000B1FD03F03FFF204610BD0C24FBE700BFA5
:10790000040A002010B5094C002323712060FFF702
:10791000E3FF20B140F21E312D20FEF799F8236AD3
:1079200013B940F22131F7E710BD00BF040A00206F
:10793000014B024A1A627047040A002054EC00000E
:10794000034B044A1A60044B044A1A60704700BF94
:107950004400002081E60000480000200DF80000EF
:107960002DE9F041067DB31EDBB2012B04468CBF2E
:107970004FF000084FF001087EB3B71E18BF012773
:10798000012B36D800F1580190F857000AF0BEFFDD
:10799000082805462DD001F041FD58BB657784F8D5
:1079A0001C8084F8507001F05DFD05460CF0D2F9A2
:1079B000174BA5FB03351B1845EB01050022C4E955
:1079C000123584F85E2011462046FFF779FB70B926
:1079D00040F2B6412D20FEF73BF83746082504F16A
:1079E0005101002001F0F2FB0028D7D10020BDE8B2
:1079F000F0810825022EF2D0E37E002BF6D0D4F8D9
:107A00001530C4F85130B4F81930A4F85530C5E732
:107A100040420F002DE9F041604D2B7986B00446BD
:107A200003F0FF07002B40F0B7800378FF2B00F036
:107A3000B3805B4B02935B4B03935B4B04932B6ACA
:107A40006F715B6880F8697002A805932F82AF6040
:107A5000AF7104F089FC04F015FA04F0FBFC03F0AC
:107A600089FE524804F0A0FA04F12806504804F0B8
:107A700075FC30460AF007F830460AF009F804F0C1
:107A8000B9FA2179252004F0BFF994F9120004F025
:107A900085FA2179384604F07DFBE86028B9012396
:107AA0002B71384606B0BDE8F08104F13401206B3B
:107AB00009F068FD04F13C018046206B09F089FD66
:107AC0000646B8F1000F03D094F82430002B3DD1C6
:107AD0000EB194F82560237F13B963885A070AD53D
:107AE000D4E912126FF000439A4208BFB1F1FF3F90
:107AF0002ED1002E34D12868033001F0D7FC6388E2
:107B0000A874DB07CDD50023266ACDE90033FF2317
:107B1000EB7406F10A086846FEF7F8FB0028C0D1AE
:107B2000009CA642F7D0727A607A434604F10A01BB
:107B30000AF0C1FE0028EED0A378EB74D4F803005D
:107B400068611C4BB4F807209A80AAE70126C2E7B7
:107B50000CF000F9D4E91223904271EB0303C8D36F
:107B6000012206EA02012046FFF7AAFA68B101F0F5
:107B700079FC06460CF0EEF80F4BA6FB03361B18FB
:107B800046EB0106C4E91236B5E7002EB3D040F645
:107B900014212D20FDF75CFF0C2782E7040A00204A
:107BA0000DE400006DE1000061E40000D6BE898EA6
:107BB00055555500180A002040420F0038B50546BB
:107BC000FFF728FF044638B9044B1B79012B03D07B
:107BD00001462846FFF720FB204638BD040A002056
:107BE000024BD8611B6A1B68184700BF040A0020BB
:107BF00008B5044B1B79012B01D1FFF795FA002042
:107C000008BD00BF040A002043881B0710B50446C6
:107C100012D5036A0A493C2280F873201B88A0F819
:107C20007430FF2380F891304FF6FF73A0F8923044
:107C300002226A300BF099F9012384F8693010BDF3
:107C4000F9860100A9E50000B5E3000059870100AD
:107C500053870100BDEB0000A5E80000FDE3000034
:107C600050EC000048EC000044EC00000138022811
:107C700008B503D9CA212F20FDF7EAFE13290A4BC4
:107C800005D811290CD8102907D0D821F3E71529D8
:107C9000FBD103EB4003D88801E033F8100008BDA6
:107CA00003EB40039889FAE770F4020008B5431E1D
:107CB000DBB2012B05D91D291ED0EE212F20FDF7A7
:107CC000C7FE10390D291BD8DFE801F0071A111182
:107CD0001A0C1A1A1A1A1A1A1A160B4A02EB43032A
:107CE000588A08BD084A02EB4303D88AF9E7064AD6
:107CF00002EB4303588BF4E740F25A335843F0E762
:107D00004FF48171DAE700BF70F402000B2808B568
:107D100004D940F24F310620FDF79AFE014B33F8AB
:107D2000100008BD90F402002DE9F04F8BB004461E
:107D300015460293894690F86DB00AF0ACFD0646F0
:107D400094F80D02FFF7E2FF94F89E300393064487
:107D500085F00103B6B2059355BB94F85432032B5A
:107D600026D1039B0D2B23D1B4F8B4324B451FD140
:107D7000D4F85C32C4F84832A369B4F82622C4F8B7
:107D80004C32B4F89A321344C4F85032204603F00F
:107D900077FCD4F8B832A362B4F8B632A385D4F82D
:107DA000BC32A361D4F8C0322362022384F8543277
:107DB000B4F89872B4F89480A9EB07073FB204F5C1
:107DC0001C73A9EB0808002F04930FFA88F86EDAE9
:107DD000D4E9A2234746C4E9A42301230493CC4B4E
:107DE0001B7803F0FF05002B54D005F0B1F80546D1
:107DF00000284FD0B4F83C32012B6DD994F854329E
:107E0000022B69D094F86A52002D65D194F80D02C6
:107E1000FFF77CFF94F8543200F5C866012BB6B228
:107E2000D9B24CD194F8A130D4F828A0032B40D17A
:107E3000D4F84C5255443146D4F84C0204F0DEFFDD
:107E4000D4F84832C4F84802A0EB030AD4F8503200
:107E50003146284603FB0AFA04F0D0FFD4F8585202
:107E6000C4F85802451B3146A06904F0C7FFAA4474
:107E7000B4F82652D4F850324544ED1BDB432B4472
:107E8000D4F85C52451B05FB03A50123C4F85C0232
:107E900084F86A3294F85432DFF874A2032B00F2AB
:107EA0008281DFE813F01B0016016B003701029B93
:107EB00094E728460AF0FEFD00EB0A05BBE7A0693F
:107EC000314604F09BFFB4F82652D4F85C324544A6
:107ED000ED1BC31A5D43D8E70025DBE70121002035
:107EE0000AF0E8FD8046A06A3146404404F086FF6F
:107EF0003146C4F85802A06904F080FF07A9C4F80D
:107F00005C0208A804F0E8FA079B0093D4E9A401F6
:107F1000DDE9082308F084F88346204609F038FF9D
:107F2000D4F8A032A66A94F86D001E4404F000FC58
:107F3000D4F85812A6F120077F1A00F523404FF419
:107F40007A734744A130B0FBF3F0A38DA7EB0B0786
:107F500030313F1A03EB410194F86D0009F0E2FD66
:107F6000D4F8A032FB1A2230B3F5C87FCAF8040057
:107F700055D840F2ED413020FDF76AFDA36AD4F8F0
:107F80004C023146184404F039FF3146C4F8580217
:107F9000A06904F033FFC4F85C02204609F0F8FE43
:107FA000B4F82632A66AD4F84C72002B40F08C80CC
:107FB000029B002B00F0888094F86DB0584604F0C6
:107FC000B7FB3744D4F8A422D4F85832049380463F
:107FD000203F5846174404F0A3FB049BFF1A3F1AA6
:107FE00008F5234808F1A1084FF47A70B8FBF0F8BF
:107FF000A7EB0807D4F85812D4F84832D4F8502226
:1080000094F86D00303102FB0311A38D03EB4101A5
:1080100009F088FD0123CAF8040084F85432A669E7
:10802000D4F85C32A6F21B26F61ADAF804309E4227
:1080300028BF1E466E23A4F87832D4E9A4327F1BF1
:10804000DF1942F100024FF00008C4E9A072C4F841
:10805000206284F8708204F134000AF0C4FFB4F89E
:108060001012A4F89892D4E9A023A1EB09090FFA01
:1080700089F9C145C4E9A423C8BF022384F87A82E0
:10808000C8BF84F87A32039B06440D2BC4F874628F
:10809000029B00F08B80002B40F0898094F85432D2
:1080A000002B00F0A280A169D4F85C3204F51C70AA
:1080B000C91A0AF0A4FC80B2002800F09680149B34
:1080C00003B118800120A0E0D4F8580237443F1AC9
:1080D00090E7D4F85C22A369D4F85002D4F848128F
:1080E0009B1A5F43B4F826329844C3439844D4F8AB
:1080F0005832303301FB0033A18D94F86D0002FB40
:10810000083301EB430109F00DFDCAF8040086E7CE
:10811000280A0020A369D4F85C021B1A5F4394F874
:108120009D30252B03D094F89E30252B0AD1B4F82E
:10813000B432A9EB03031B0404D494F8B732002B28
:1081400018BF9B46049B03B3B4F82632EBB9D4F8AE
:10815000A43213B940F23F510DE794F86D0004F0DA
:10816000E7FAD4F8A4320646203B94F86D00049355
:1081700004F0D6FA049B1F44381A06F52343A133B2
:108180004FF47A77B3FBF7F7C71BB4F82612D4F88D
:108190005C324144594330314900584609F0C2FC31
:1081A0001B4B58603BE740F25451E4E6EBB1B4F8A6
:1081B0003C1221B3B4F83E2294F84032A4F83E2297
:1081C00002FB0333994202F101000EDD94F87A328A
:1081D0005BB1002384F87A32A4F83E0201F048FD36
:1081E00000F00700013084F8400294F89C0204F586
:1081F0001C7106F00FFF20B940F29D51BBE60A4604
:10820000DAE7059B84F8683200200BB0BDE8F08FF8
:10821000280A00202DE9FF41044618B99421302096
:10822000FDF716FC082900F23281DFE811F00900A1
:1082300080008A008A00850030011C0124012E0183
:108240000023C0F8A43290F86832B0F89420002BD4
:1082500065D0B0F8663293425BD1B0F81422A0F832
:108260009420D31AA0F81632D4E9A0232046C4E9FA
:10827000A22303F0E9F894F81B32002B00F0B6803B
:10828000A569D4F85C32DFF80C829D4288BFED1AF4
:1082900098F8083098BF00251BB9636B9D4228BF32
:1082A0001D4604F134000AF09EFE064694F86D0067
:1082B00004F03EFAD4F8203203F24517374400F5B3
:1082C0005F404FF47A734130B0FBF3F00744022073
:1082D00007F0D8FBED1B25EAE575854228BF05466A
:1082E0000221284607F01CFC00B92F4440F27922F5
:1082F000394620460AF0BCFED4F82032C8F80C00FB
:10830000A069184407F064FB00286FD140F2A33144
:1083100085E79A1AA0F81622A4F89430A4E7B0F8DA
:1083200064329A1AA0F81622B0F86432F4E704B066
:10833000BDE8F0410BF019BA04B0BDE8F04104F01B
:10834000D7B80BF007FDD4E9A223801A61EB030133
:10835000012871F1000302DA40F21A615FE76FF061
:10836000010383424FF000038B4102DA40F21B61AC
:1083700055E7A3690BB1B0FBF3F394F89E10B4F882
:1083800066220D2935D10132A4F86622B4F89A325A
:10839000B4F894500133A4F89A32B4F8CE301D44A6
:1083A000B4F8CC30013DED1AADB20DF10E06B4F8C3
:1083B00066126B1A1B0436D594F8A1303649002B8F
:1083C0000CBF3E23082384F8BF3004F1B6000AF046
:1083D000D8FD20460BF0CBF9002384F8543294F8F2
:1083E0009C0206F0A5FC202384F89C3204B0BDE872
:1083F000F081B4F894100B449BB2D11A090454BF15
:10840000531C01339BB2A4F8663294F86932002BF6
:10841000BCD1B4F81432B4F86622934204BF0133DD
:10842000A4F86632B2E7002300961A462046FFF70A
:108430007BFC0028DAD0012812D1B4F86622B4F807
:108440001012BDF80E301344521A12049BB204D518
:10845000EA1A12F4004F18BF0B46A4F86632A6E7DA
:1084600040F25A61DBE6012004F092FC04B0BDE862
:10847000F04109F028B990F85432042B01D0B8210A
:10848000CDE6002380F85432B0E7BE21C7E6C22112
:10849000C5E600BF280A002075A1010090F8E03071
:1084A0002DE9F04104460D46164603F0FF0813B1CE
:1084B0000C20BDE8F0810146474806F00FFC20285B
:1084C0000746F5D05022414604F1C00008F07EF97D
:1084D000012384F8C070C4F8C45084F8E03035B18A
:1084E00001F0DEFB00F00700013085F84002204675
:1084F00009F02BFB00274FF48173A4F8F230A4F8A5
:10850000F00084F8E87004F0A9FCB4F8F050D2351B
:108510000544204609F045FAADB2014668B30AF0B9
:10852000BAF900F5CD6189B2304604F067FC3044F9
:10853000C4F8EC000BF00EFC281841F10001C4E96E
:108540003E01012084F8C800E78409F0E7FADB3E29
:10855000361AC4F8CC604FF0FF326FF00043C4E924
:10856000402394F8C00004F1E80106F053FD30BB4D
:1085700040F2E9113020FDF76BFA204609F035F999
:10858000164FDB30C4F8EC00388A40B1E08C30B1D3
:1085900001F086FB3B8AB0FBF3F202FB13000544BB
:1085A0000BF0D8FB2D1841F10001C4E93E51002E1B
:1085B000D1D0751941F10001C4E94051D1E7D4E9A6
:1085C0003E2300252046C4E93623A4F8E25029467C
:1085D00009F003FA28466CE7E38B0100280A002023
:1085E000F0B5002385B0CDE9003301238DF80630C6
:1085F0006846FDF78BFE70B11B4E0123B374002754
:10860000CDE9027702A8FDF781FE0546A8B100205A
:10861000B07405B0F0BD009809F0F9FBE8E790F8F8
:108620009C0207F0B1FB94F89C0284F8545206F0C7
:108630007FFB202384F89C32E2E7029B002BE1D0F1
:1086400093F89C22202ADDD018884FF6FF739842B9
:10865000DDD02946FDF722FE04460028DFD140F296
:108660001F113020FDF7F4F9280A0020054B0022E5
:1086700001211A7219709A7442F210721A82FFF76D
:10868000AFBF00BF280A0020014B1872704700BF1F
:10869000280A002008B503F0B1FB044BDA688242D7
:1086A0002ABF987C002080F0010008BD280A002025
:1086B0002DE9F3470446052900F2A280DFE801F026
:1086C000037D6A7A819BD0F8A432002B50D090F8B9
:1086D0006A32002B4CD090F85432032B48D190F8DA
:1086E0006DA00AF0D8F8064694F80D02FFF70EFBCD
:1086F000804606445046D4F8A47204F011F83F1A9C
:10870000504604F015F800F2E7325046D4F82052F3
:108710004FF47A79B2FBF9F2BF1A04F001F82D1A7E
:10872000504604F005F800F52340A130B0FBF9F005
:108730002B1A5A08B6B2603B08F5C8682932734351
:108740001FFA88F8B3FBF8F360335908A2EB530320
:108750009F4202D30A44974201D904F00BFEA0695C
:10876000314604F04BFB0023C4F85C0284F86A3203
:10877000254B9B7C03F0FF0263B9B4F814120092FE
:1087800001232046FFF7D0FA38B140F2E4613020EF
:10879000FDF75EF9042384F8543203F0B5FC06F0CB
:1087A00003F9B4F89420A4F866220023A4F89A32BE
:1087B00084F8693202B0BDE8F087032380F85432B0
:1087C000F8E703F015FB0546C4F8A40294F86D0021
:1087D00003F0A6FF854202D24FF46A71D7E794F8FE
:1087E0006D00D4F8A45203F09BFF074BDA681544E0
:1087F0002D1ADD60DEE702B0BDE8F04709F0C8BA27
:108800004FF4EE61C3E700BF280A00202DE9F843CA
:1088100006460C4615468ABB03F0F0FA0121D4E95E
:108820003E89074684F8E050D4F8C40084F8C85064
:1088300084F8E11000F0FCFED4F8C400C0E9A2897D
:1088400094F8C03080F89C32C0E9A489C0F8A072C6
:1088500009F0B2FA20B140F227713020FDF7F8F8A4
:1088600003F052FC06F0A0F8074994F8C000324625
:1088700004F07EFA28B940F28371EEE740F29A7173
:10888000EBE7BDE8F88300BF15F20000014B18824A
:10889000704700BF280A0020F0B5070CA7F5AA42D0
:1088A000144B543A012A03EA90231FD927F40040BD
:1088B00042F6AA22801A18BF01200022162116466D
:1088C0001F2487EA060562EA0505013510D0DD039D
:1088D000ADB245EA5606E503ADB2013945EA5202AA
:1088E0004FEA53034FEA5404EBD1F0BD0020E4E714
:1088F0000020FAE7E0FF3F0010B501210020FDF75E
:10890000CDFC044670B90121FDF788FC044620B96E
:1089100040F21D313920FDF79BF8034B93F900100D
:1089200008F02BFF204610BD400A002008B509F0D2
:10893000C1FF00F07FFD00F071FB0AF014FB00F0B6
:108940000FFF01F0D9FC00F023FF084B1B224FF46E
:10895000A4715A809980064B06499A8000221960BA
:10896000DA825A821A835A7408BD00BF400A002076
:10897000580E002003021B00044B41F64C52C3E981
:1089800002221B221A74FFF7D1BF00BF580E00202D
:108990002DE9FF41344DAB68044640F8343F09F0FF
:1089A0006CFA064600F02AFB10F0200F08BF1B22CD
:1089B0002B7C1DBFAA886988A4F85E10A4F85E20ED
:1089C00084F83C30A4F86020E68700F017FB8B07A2
:1089D00006D5012302A88DF80830039409F063FB43
:1089E000AE7CEF7CB5F8148041F64C53A36116B908
:1089F00000F00AFB064657BB00F006FB074646B3ED
:108A000038B302A920468DF808608DF80970ADF8DA
:108A10000A800AF04BF86B7801932B7800936A88F0
:108A2000AB8804F1140104F11000FDF7A7FC2369E1
:108A300013B940F27F5114E0636913B94FF4B06188
:108A40000FE0002004B0BDE8F0810920FAE7002E15
:108A5000D7D120880021FDF737FC0028F5D040F25F
:108A600072513920FCF7F4FF580E0020F7B5054687
:108A70000E4608F0B5FE002873D0284608F091FF96
:108A800040B1B6F80130013B7F2B03D912242046B8
:108A900003B0F0BD284608F088FF08B90C24F6E7BB
:108AA000284609F0ABFA0028F8D1284608F056FE0F
:108AB00004460028F2D12846FEF752FF0028E5D0F0
:108AC000B6F80170F17842F2107328465F4308F05F
:108AD00055FF284608F05DFF014658B93A4628463A
:108AE000FFF7DCFC04460028D1D041F29C7139200C
:108AF000FCF7AEFF21460DF10600FDF757FB0646D9
:108B000068B3214600F094FDBDF806303380284656
:108B1000314608F054FF284608F04DFF98B9284622
:108B200008F04BFF01463046FFF732FF04460028AD
:108B3000ADD13A4631462846FFF7B0FC044620B195
:108B400041F2BF71D3E70121EDE7074B9B68002B92
:108B50009DD0024606F599713046984797E70D2457
:108B600095E7422493E700BF400A0020034B5A8850
:108B700002801B7883700020704700BF580E0020D1
:108B800037B583781A2B054609D8042B05D901225D
:108B900002FA03F3134A134205D112241AE0292BD7
:108BA00001D03B2BF9D12888B0F5706FF5D269461A
:108BB00009F0CEFE88B9019B93F8302102F0FF0442
:108BC0006AB9AA7883F83121FF2283F830216846F8
:108BD0000AF0A4F9204603B030BD0224FAE70C24C1
:108BE000F8E700BF2000380413B50088694609F093
:108BF000AFFE18B10224204602B010BD019A92F8CF
:108C00005432DBB292F8BE20002AF3D113F0FB0FEE
:108C1000F0D0019890F842310BB13A24EBE790F88C
:108C2000E63003F0FF04002BF7D190F8DD309B070E
:108C300006D1012380F8423168460AF06FF9DAE77D
:108C400002490222DE300AF0A2F9D4E7C1A40100F1
:108C5000F0B50778EF2F85B004460D4603D91225ED
:108C6000284605B0F0BDB0F80130ADF80C309DF8E5
:108C70000C30DA063FD49E0603F0030238D5002AF2
:108C8000EDD11807EBD46378190711D42179E27874
:108C9000E07942EA0122617942EA0142A17941EA9E
:108CA0000021207A41EA00418A42D8D81F2AD6D929
:108CB000627A013A062AD2D8A27A032ACFD813F0D0
:108CC000040102D1023A012A03D8E27A012AC6D865
:108CD00011B9A27C032AC2D813F01001227D19D049
:108CE000012ABCD1227E012AB9D8B1B91125B7E732
:108CF000032AC6D1B3E713F0600FB0D103F00F021F
:108D000003F00703052BBED0931E012BBBD9002A0D
:108D1000A5D1B8E7022AE5D1A1E7DA071FD4637825
:108D2000227D03F0180108291ED1022ADED11B077B
:108D300009D4E279A37943EA0223227A43EA02437F
:108D4000B3F5804FD2D8BFB201213846FDF7A6FA5D
:108D5000064678B109F052F9B8B10C2580E700F069
:108D600023F90028DBD1C1E7022AE0D0A27E002A45
:108D7000DDD0BBE701213846FDF750FA064650B377
:108D8000164B93F9001008F0F8FC304608F0FEFD91
:108D900021462870E074304608F043FD637E0546A6
:108DA000002B3FF45DAF00287FF45AAF316B0246D1
:108DB0006846FDF7ABFB306B2A46012108F0C5FB86
:108DC000316B68460422FDF7A1FB306B2A46294629
:108DD00008F0BBFB44E7072542E700BF400A00203C
:108DE00070B50579042D8AB0034658D84488B4F587
:108DF000804F54D82B48465D284400214279857A1B
:108E0000C07BADF8041042F0100242EA460242EA8A
:108E1000850242EAC00202F01F028DF80420BDF86C
:108E20000420ADF80D201A888DF80F208DF812401F
:108E3000120A240A8DF811108DF814108DF81020E4
:108E40008DF813405A7B8DF815205A798DF816202D
:108E50009A79D3F807008DF81720B3F80B209B7B85
:108E60008DF81E307F238DF81F3001238DF80C10F4
:108E700006908DF82110ADF81C208DF820308DF86B
:108E8000223003A88DF823108DF824108DF82510BA
:108E90008DF8261001A9FFF7DBFE0AB070BD122085
:108EA000FBE700BFB4F402000278034672B14278D7
:108EB00062B142881A2A09D982881A2A06D9044A34
:108EC000006810609B8893800020704712207047D4
:108ED000580E0020024B02689A600020704700BFC5
:108EE000580E00200378A3F10A02112A9DBF024AFE
:108EF0000020137412207047580E002008B5FEF7AA
:108F000017FDFFF7B3FBBDE808400148FEF7FABCC8
:108F10004C0A002010B50B4C012384F80231FEF7F7
:108F20000FFD01F031FD09F0C3FC04F203112046EE
:108F3000FDF7BEFC002008F0AEFABDE8104000F0DE
:108F400063BD00BF4C0A002010B5064C064904F56D
:108F5000027009F062FC04F503700449BDE810409A
:108F600009F05BBC4C0A00204C000020540000209B
:108F700010B5094C094904F5027009F04EFC04F5DE
:108F80000370074909F049FC04F504700549BDE880
:108F9000104009F042BC00BF4C0A002064000020D1
:108FA0006C0000205C000020014B93F80201704728
:108FB0004C0A002010B5074C00F01EFDD4F8080242
:108FC00009F023FCFFF7D8FC00F082FE012384F8AF
:108FD000143210BD4C0A002010B5074CD4F80C0216
:108FE00009F013FCD4F8100209F00FFCFFF79EFC07
:108FF000002384F8143210BD4C0A0020014BD3E941
:109000000001704710000020034B1868C0F30020D7
:10901000400040F0010070471000002008B503F048
:1090200017FF084A002332F82310814205D302EBD0
:1090300083039B78044A137008BD01330C2BF2D1D3
:109040000023F7E7C8F40200610C002010B5446863
:109050002388A4F89D3194F86C3084F89C11012B7E
:1090600006D0022B04D04FF422710620FCF7F0FC4E
:1090700084F89F3194F86D30012B01D0022BF2D18E
:1090800084F8A0310449022204F2931009F07FFF12
:10909000002384F83C3110BD9B980100044B002252
:1090A00083F822204FF6FF729A84DA841A8570477B
:1090B000620C0020054B9A8C824201BF002283F88B
:1090C00022204FF6FF729A84704700BF620C002086
:1090D000014BD884704700BF620C0020094A034648
:1090E000908C4FF6FF71884206D192F82210012928
:1090F00005D01A60012070470020186070470020DA
:10910000704700BF620C0020064B93F82220012A12
:109110001FBF0120DA8C83F822009A8408BF002048
:10912000704700BF620C0020014B1885704700BFDC
:10913000620C0020064B0246198D988C884205D19E
:1091400093F8220018B11360012070470020704787
:10915000620C0020094B998C1A8D914201D000209D
:1091600070474FF6FF729A8493F82220002AF6D0B7
:10917000002283F822200120704700BF620C0020EB
:10918000054B998C1A8D914203BF93F82200B0FAD7
:1091900080F0400901207047620C002050B90A4A53
:1091A0001346012003F8010B0868C2F801008A8801
:1091B0009A807047012805D1034B0A689A608A8813
:1091C000D8719A81704700BF8C0C002048B90A4BB7
:1091D000187880B1D3F80120B3F805300A608B808D
:1091E0007047012806D1044BD87920B19A680A60EB
:1091F0009B89F4E7002070478C0C0020F0B51A4BD7
:1092000093F800C006460025E8B2844501D808203E
:1092100029E093F853410A7893F854E193F8587190
:10922000624093F85241744022444C7884EA0E0420
:10923000224493F855E18C7884EA0E04144493F8A0
:1092400056E1CA7882EA0E02144493F857E10A798B
:1092500082EA0E0222444C797C40D44205F1010599
:1092600003F10703D0D1F0BD9A0C002030B5094BB3
:1092700001465C78002203F58173D0B2844201D8A4
:10928000082005E013F8015B8D4202F10102F4D1E0
:1092900030BD00BF9A0C0020F0B5254D95F88A41ED
:1092A00089B0224605F28B11684607F017FA21466D
:1092B000684609F01EFB0446B8B300EB4001C9B292
:1092C00002A8FCF727FD601E95F89361C0B2012447
:1092D00095F88A2105E0731CB3FBF2F102FB113310
:1092E000DEB206F120030DEB030111F8203C002B48
:1092F000F1D100EB400220326A4406EB46032B44D6
:1093000012F8187C83F8947112F8177C12F8162C56
:1093100083F8957183F8962101F8204C0138AB1938
:10932000C0B2FF2883F88B41D2D109B0F0BD00BF95
:109330009A0C002070B505468CB00C46002A58D017
:109340002E4890F89331C11891F88B2122B94FF42F
:1093500080712820FCF77CFB03EB430202440133BD
:1093600092F89461E67092F8956192F89621627194
:109370000022267181F88B2190F88A21B3FBF2F14B
:1093800002FB113380F8933190F8B43123B91C49B2
:1093900000F5D67009F0F8FD667906F03F0646F054
:1093A000400666710D22002104A807F00FFAE37849
:1093B0008DF81F3023798DF81E302B468DF81D60F7
:1093C0006D4603F11006186859682A4603C208332F
:1093D000B3421546F7D1684606F044FF9DF82F309A
:1093E00023709DF82E3063709DF82D30A3700CB063
:1093F00070BD03216018FCF78DFCCDE79A0C0020AE
:1094000099020100044B5A78824286BF1B1893F8D8
:109410004A010020704700BF9A0C0020044B5A7884
:10942000824286BF1B1893F842010020704700BF9C
:109430009A0C0020074B00224FF461711A705A7089
:1094400083F8B52183F8B621A3F8B81183F8B421C5
:10945000704700BF9A0C0020014B83F8B60170479B
:109460009A0C0020014BB3F8B80170479A0C002009
:1094700010B50D4B5C78844214D9184490F8020161
:10948000C0EBC0041C4494F852410C70072140F218
:10949000531411FB004158185B5813608388938064
:1094A000012010BD0020FCE79A0C0020024607486E
:1094B00010B590F8B54124B1417821B1023002F0E5
:1094C00027F9204610BD0C46FBE700BF9A0C002090
:1094D0002DE9F74F2F4C9A466378834280468946A0
:1094E00056D9231893F8425185F00105F9B193F844
:1094F0004A31E3B945F002070135BAF1000F18D13E
:10950000FA070AD5062101FB084104EB0810524670
:1095100001F585718230FFF70DFFBB0734D504EBF1
:109520000810524649460230FFF704FF2CE02F4650
:10953000E3E794F893614FF0010B002DE0D0A319FD
:10954000019393F88B1199B90092DAB100F090FB76
:1095500006EB46012144019B81F894014FEA102C4F
:10956000009A81F895C1000C81F8960183F88BB1BF
:1095700094F88A310136B6FBF3F103FB1166F6B2BB
:10958000013DDAE747F00407384603B0BDE8F08F45
:109590000027F9E79A0C0020074B5A78824209D934
:1095A0001A1892F842212AB9062202FB003000F56F
:1095B00085707047002070479A0C0020064B5A783F
:1095C000824281BF1B1893F83A01B0FA80F040093B
:1095D00098BF0020704700BF9A0C002030B50024CF
:1095E000A0F84C40B0F8504042F210754C43B4FB28
:1095F000F2F4A0F85040541E05FB0343B3FBF2F312
:10960000A0F84E30094BB3FBF2F30133A0F854300D
:10961000B0F8483005FB0344036CB4FBF2F4594343
:109620004464B1FBF2F2026430BD00BF005A620232
:1096300070B504460D4649BB4FF4387207F0C6F8C2
:10964000012384F8A530492384F8ED30042384F8FD
:10965000EE306FF03B0384F8EF30072384F8F030EE
:109660002B2384F8EC30FE2384F826317F2384F802
:1096700099301F4BC4F88830202384F8F15084F8C7
:10968000F25084F8F35084F89C3270BD012922D145
:1096900000238269A0F8263280F81B32154B134450
:1096A000B3FBF2F3C0F8C43040F6B833A0F8C830CA
:1096B0001146438C8030FFF791FF0AF014FC30B163
:1096C000E069FFF7E9F810B984F80C52DDE70023F0
:1096D00084F80C32D9E70229D7D1B0F8C232D0F8D9
:1096E000BC228169BDE870408030FFF777BF00BFC2
:1096F00000E0FCFF7FC3C901074B93F90030184419
:10970000142804DC10F17F0F03DB40B270471420F3
:1097100070476FF07E007047540E002007B57F231E
:109720000DF107008DF8073002F0A2FE9DF9073019
:1097300068B10A4A5078404243FA80F0142808DCA5
:1097400010F17F0F07DB40B203B05DF804FB184651
:10975000FAE71420F8E76FF07E00F5E7540E0020DA
:10976000024B00221A705A70704700BF540E00203E
:10977000054B0168FF221A70044A116001791171CA
:1097800000221A70704700BF560E002018000020FB
:1097900007B5064B186800901B798DF804306846B1
:1097A000FFF7E6FF03B05DF804FB00BFD1FF020046
:1097B00008B5037801F00F0223F00F0313430629C5
:1097C000037003D8034B5B5C437008BDA8212A20BB
:1097D000FCF73EF9F8F402000346407850B1DA781D
:1097E0002A2A06D8044B1344DB791B1A58425841E5
:1097F00070470120704700BFF8F402002A2908B51D
:10980000C17004D8064B1944CB79437008BDFF29B9
:1098100004D04FF48D612A20FCF71AF90123F4E7F4
:10982000F8F402002DE9F04385B0894602A91446F8
:10983000984609F08DF8054600283CD1039E34B9BE
:10984000012486F8A440204605B0BDE8F0833769BE
:109850002146384607F022FC014670B3194B5B885D
:10986000A3422CD301AA384607F06DFD019B1D8051
:109870009D7096F8A4300198002B0CBF4946022138
:1098800009F0B1FA019822464146033006F026FF5E
:109890002146384607F037FC044618B97C212B20B6
:1098A000FCF7D6F802A809F039FB039BA3F8125283
:1098B00086F8A450C7E70124C5E70446C3E72C4651
:1098C000C1E700BF580E002010B5094C142200213A
:1098D000204606F07BFF1222002104F1140006F05E
:1098E00075FF01232373231DC4E9003310BD00BF9E
:1098F000740E00207FB505460C4621B940F20B11CD
:109900001020FCF7A5F803888B8000234B72466972
:10991000304607F00AFD014610B94FF48A71EFE7AF
:1099200001AA304607F00FFDE08010B940F219118E
:10993000E6E7FB2802D940F21B11E1E7019809F0A4
:109940005AFA012801D0022805D12072206828B9CE
:109950004FF49971D4E740F22B11D1E70199E288D5
:10996000033106F0BBFE304607F0F5FC10B940F2BB
:109970003711C5E70021304607F029FC10B94FF434
:109980009E71BDE70A4BDA7D82B11A8B2888013AB5
:1099900002A91A8308F0DCFF10B140F24511AFE7CD
:1099A000039AB2F8B4300133A2F8B43004B070BDF9
:1099B000580E002010B520B940F271211020FCF79C
:1099C00047F841600272EFF3108472B6094B1A1D1A
:1099D0000260596819B1097A012908BF1A601A682A
:1099E0001060186004B962B6BDE8104093F8260014
:1099F00006F00ABD740E0020024B83F82600FFF724
:109A000063BF00BF740E0020014B024A1A6070470A
:109A100074000020F5080100F7B5514E514F05467E
:109A200073681B7A102B06D1FB7D23B13B8B13B9D6
:109A3000002003B0F0BD3369ABB11B7A9BB1346930
:109A4000002CF5D0237ADBB20522023B22720E2BCA
:109A500078D8DFE803F01925457777774E77777761
:109A6000777777636A007468237A012BE0D0EFF38D
:109A7000108372B672681268726003B962B6237A94
:109A8000002BD8D03461DDE7636823B94FF4E1716E
:109A90001020FBF7DDFF29462046984704200FE001
:109AA000636813B940F2CB11F2E729462046984784
:109AB0000346C3F30723012BADF80400C0B244D022
:109AC000EFF3108372B6227A052AD1B201D00029B1
:109AD00041D1002222723261002B38D162B636E0C9
:109AE000636813B940F2D511D2E7204698470020A9
:109AF000E6E763680BB9E021CAE70B222A701A88EF
:109B0000A5F803200024012218696A71AC71AA70BB
:109B1000214607F05CFB346104208AE715232B7093
:109B2000D4F80930C5F80330B8E7606810B940F2DE
:109B30003D21ADE70C4B29461B6898470023336154
:109B4000022076E740F24621A2E703232372002891
:109B50003FF466AF6DE7002B7FF462AF62B65FE75C
:109B6000740E0020580E0020740000200448037F6B
:109B700023B904490222143009F0F7B9704700BF35
:109B8000740E00205D9F01001B234FF01B12838485
:109B9000038482618382C260038539B94FF4A47360
:109BA000034AC3844384C261C3820261704700BF19
:109BB0004801480103460846B3F85820B3F84C1052
:109BC0009142F0B528BF1146B3F85040B3F85A207F
:109BD000B3F84850B3F84270B3F84660A3F84210A7
:109BE000A24228BF2246B3F84A40A3F84620944236
:109BF00038BF14468D4238BF0D468F42A3F84850F7
:109C0000A3F84A402ED1B61A18BF0126B3F84E5019
:109C1000B3F85440B3F856E0B3F840C0B3F844701A
:109C2000A54228BF2546B3F85240A3F840507445DA
:109C300028BF7446AC45A3F8444002D1A74200D1E6
:109C400096B11B88A0F80930A0F80B50A0F80D4081
:109C5000A0F80F10A0F81120BDE8F040034902223F
:109C600009F095B90126D1E7F0BD00BFA79F01001B
:109C7000094AD2E90003434083EAB01181EA432153
:109C80004FEAF3435360054B116058434FEAF060CD
:109C900000EB8000704700BF9C0E0020BB79379E10
:109CA000094AD2E90203434083EAB01181EA432121
:109CB0004FEAF343D360054B916058434FEAF0609D
:109CC00000EB8000704700BF9C0E0020BB79379EE0
:109CD00038B50A4C04F1080508212846FCF71AF8A3
:109CE000D4E902231343F7D0FFF7DAFF2060FFF730
:109CF000D7FF236860600343F6D038BD9C0E002078
:109D000070B5044640680D4690F89E20012300215E
:109D1000803008F034FE20B32846666809F0B8F8B1
:109D2000A6F8B4026068B0F8B432B0F89420013BF1
:109D30009B1A9BB247F6FD72934208D9282380F8FC
:109D4000BF300949B63009F01CF9002070BD00F29F
:109D5000B621284609F097F863680A2283F89E2006
:109D6000F3E70120F2E700BF75A10100F8B5044652
:109D700040680D4690F89E2001230021803008F0B5
:109D8000FEFD002849D00021284609F04FF828B9E7
:109D900029462046BDE8F84009F0D8B96068B5F812
:109DA0000D30B0F89420A0F8B432D24313449BB2E3
:109DB00047F6FD72934208D9282380F8BF3018492E
:109DC000B63009F0DEF80020F8BD284609F025F885
:109DD00008F090FE6768C7F8BC020646014628797D
:109DE00008F08CFEA7F8B6023146B5F805006768A2
:109DF00008F08DFEC7F8B8022846666809F010F82A
:109E0000A6F8C0022846666809F00DF86368A6F84F
:109E1000C2020D2283F89E20D5E70120D4E700BFBF
:109E200075A1010008B5406890F89E30152B04D04C
:109E30004FF493711F20FBF70BFE012380F8DB30FA
:109E4000162380F89E30BDE808400349022200F541
:109E5000317009F08AB800BF7FA20100436830B5B5
:109E6000D3F88C4014F001001DD14D680F4A896869
:109E7000A3F8D8002A40C3F8EC20C2F3076242F0EE
:109E8000080221F4FF6183F8EF2093F8DA20C90477
:109E9000C90C013244F00104C3F8F01083F8DA2051
:109EA000C3F88C4030BD0120FCE700BF2F4904F708
:109EB00070B54468037894F89D200D4604F1800045
:109EC000072108F05CFD70B36968194BAA680B4064
:109ED000C4F8EC3022F4FF62C3F3076343F00803D5
:109EE000D204D20C84F8EF300023C4F8F02084F8B8
:109EF000D63084F89D3094F8A92102F0FF06A2B96B
:109F00002388A4F8AB3184F8AA616B68C4F8AD313A
:109F1000AB680849C4F8B131022204F2A11009F07B
:109F200024F8304670BD0126FBE71E46F9E700BF66
:109F30002F4904F7B1A30100406890F8A9315BB93B
:109F40000388A0F8AB311A2380F8AA310349022212
:109F500000F2A11009F009B8704700BFB1A30100D9
:109F600010B50446FFF74AF8044B21F4FF61C90419
:109F70000340C90C6360A16010BD00BF2F4904F706
:109F800037B50C464568FFF739F8094B95F8EC20D2
:109F900021F4FF610340C9040093C90C13408DF8FC
:109FA000003001916B4603CB6060A16003B030BD0F
:109FB0002F4904F738B54468037894F89D200D467E
:109FC00004F18000082108F0DAFC18B9D4F88C30CC
:109FD000980741D494F8DD3099071AD4284608F040
:109FE00079FF84F8E700B5F80530A4F8E830B5F853
:109FF0000730A4F8EA3094F8DD3043F0020284F828
:10A00000DD20DA0705D51549022204F1DE0008F04B
:10A01000BEFF94F8DD30DB0713D4D4F88C3013F096
:10A02000020203D050214020FBF712FD43F002034F
:10A03000C4F88C3094F8DA30A4F8D820013384F8CE
:10A04000DA3094F89D30012B4FF0000003D184F8F2
:10A050009D0084F8D60038BD0120FCE7C1A40100B2
:10A06000114A00F5006092F90010031340F3073025
:10A0700081420BDD92F90120584242FA80F07F289C
:10A080000DDC10F1800F0CDB40B2704792F902102A
:10A09000814202DA92F90320EEE7002070477F2028
:10A0A00070476FF07F007047AC0E0020F7B56FF47B
:10A0B000F473C718044697F86D0008F014F86FF4AD
:10A0C000B47214440546A068FFF7CAFF064658B3A9
:10A0D000D4E900126FF000439A4208BFB1F1FF3F8C
:10A0E00022D009F037FED4E90023904271EB03033C
:10A0F0001AD33888694608F02BFC18B184217A20DD
:10A10000FBF7A6FC691C02233246C9B2684607F079
:10A11000F8FF48B9054B9D8809F01CFE4FF47A768C
:10A12000E6FB0501C4E9000103B0F0BDAC0E002060
:10A13000044B9B685843C3F580534B4303EB2030DB
:10A14000704700BFAC0E00202DE9F041064647687D
:10A15000FFF7E4FA74687F28054684F899001ED159
:10A16000002397F83020012A67D1002B65D0706852
:10A1700090F85231002B60D13B88A0F8533197F80A
:10A18000993080F8553197F89A3080F85631BDE80B
:10A19000F0412B49022200F5A57008F0E6BE94F8C4
:10A1A000B33084F89A300146D4F88800FFF7C0FF36
:10A1B000244BC4F888001B7BF3B1FFF751FFD8B1E3
:10A1C000D4E920126FF000439A4208BFB1F1FF3F7B
:10A1D00012D009F0BFFDD4E92023904271EB0303B4
:10A1E0000AD3D6F8048001F0FDFD174988F86D0008
:10A1F00008F2E91008F0D4FE94F99B2094F831108D
:10A20000AB1A1BB2002BB8BF5B429BB28B42A7D3E9
:10A21000FF29A5D094F89C3094F832100133DBB2BA
:10A22000994284F89C3001D37F2A99D1002384F885
:10A230009C3084F89B50012393E7BDE8F08100BF78
:10A2400043A50100AC0E0020AD100100F0B5204E7A
:10A25000054630780024147080B1431E7768DBB265
:10A26000181B01280BDC07EBC40057F8346040686A
:10A27000884208BFAE4212D114700120F0BD1819F7
:10A28000461007EBC60E57F836C0DEF80460AC4542
:10A29000C0F347008E412CBF03460446E0E7B542B9
:10A2A00071EB000002D214700020E7E707EBC30057
:10A2B00057F833404068884208BFAC4201D1137060
:10A2C000DBE7A542814128BF01331370ECE700BFF3
:10A2D000BC0E002010F0070208B503D0632148200F
:10A2E000FBF7B6FB18B1034B197258601A70C8001F
:10A2F00008BD00BFBC0E0020014B00221A70704741
:10A30000BC0E0020014B187A704700BFBC0E002025
:10A310002DE9D34309F01CF90DF1070207460E465B
:10A32000FFF794FF98B9114C2278237A93420ED00C
:10A33000616813466FF0604E9DF80700984209D39C
:10A3400001EBC003C3E9007601322270012002B0A4
:10A35000BDE8D08303EB0E0001EBC000D0E900891B
:10A36000013BC0E90289DBB2E6E700BFBC0E00207A
:10A3700037B509F0EDF80DF10702FFF767FF044666
:10A38000A0B10C4A9DF8070013785568013BDBB279
:10A3900013701A1AD2B2411CD200834238BF002275
:10A3A00005EBC10105EBC00006F052F9204603B0F1
:10A3B00030BD00BFBC0E002038B5436893F89E2026
:10A3C0001C2A044604D04FF49A613120FBF740FB6D
:10A3D00093F8DC101D88002283F8DB2003F2FF10C5
:10A3E00071B10C4983F8DC2083F80822A3F80952E4
:10A3F000022208F0BAFD6368002283F89E2038BD6F
:10A40000012283F8081283F80B220349A3F80952AA
:10A410000222EEE769A201004FA20100172870B5E1
:10A4200003460D460CD80D280ED9A0F10E010929BE
:10A430000AD8DFE801F00B0909090B090B09110B18
:10A44000A0F12303022B25D9002070BDBDE8704088
:10A450000021184609F0C2B8124C606890F89D308F
:10A46000212B0AD129462046FEF7F0FD6368002221
:10A4700083F89D2083F8D620E6E72E2BE4D190F8D0
:10A480009E2001230B21803008F079FA0028EDD1BD
:10A490002A21E8E7044B1B68002BD5D0BDE87040AB
:10A4A000184700BFC80E0020D4010020114B0979C5
:10A4B0000246586890F89D30212B11D02E2B0FD0DA
:10A4C000282B0FD0042B0FD00F2B0FD01D2B0FD00C
:10A4D00090F89E30232B14BFFE201720FFF79EBF5D
:10A4E0001620FBE72320F9E70E20F7E71220F5E717
:10A4F0001420F3E7C80E002008B5084B586890F800
:10A50000A3304BB990F89E2001230621803008F03B
:10A5100036FA00F0010008BD0120FAE7C80E00205D
:10A52000F8B52D4B1A89402842EA00021A8105D15C
:10A5300058680421BDE8F840FEF7BAB800F00302FD
:10A54000032A04D140F6F6213120FBF781FA10F0FE
:10A55000020418BFD960C50705D5CA781961062A53
:10A560000DD00B2A18D02CB1DA68D278052A1FD06A
:10A570000B2A2AD0820644BF08221A75F8BD5A68F1
:10A5800092F89E101829EED1002600270121C2E979
:10A590003E6782F8A210E6E75A6892F89E101229E8
:10A5A00001BF002182F8A210012182F8DC10DAE755
:10A5B0005A6892F89E101629DCD100240025C2E9C1
:10A5C0004045012182F8A310D4E75A6892F89E1002
:10A5D0001129CFD10021F5E7C80E002013B504469C
:10A5E00001A8FEF77BFD20B940F2EA713120FBF7AC
:10A5F0002FFA22220021019806F0E8F801980321A1
:10A6000008F0F1FB0198037823F010030370214652
:10A61000FFF7F4F8252C18D8012C19D9A31E232BE9
:10A6200016D8DFE803F018154E2C2C18155C152CE5
:10A6300038338F15151F2C2C6161447B15151515AA
:10A6400015151515151515939393FF2C00F085809E
:10A6500040F69C01CAE7474B5B6893F82821019BB1
:10A660001A710CE0434C0198636893F8231108F0C9
:10A6700043FC6368019893F8221108F041FCFEF74F
:10A6800043FD002873D14FF40A61AFE7394B5B6893
:10A6900093F82221E3E7019B0D221A7159225A7186
:10A6A00000229A718F22DA7111221A72E7E7314A79
:10A6B000019B526892F83E11197192F83F215A712C
:10A6C000DDE72C4C0198616801F50C7108F0FDFB89
:10A6D0006168019801F50E7108F0F9FBCFE7019967
:10A6E0002448FFF74DFCCAE7224C01986368B3F891
:10A6F000581008F0F1FB63680198B3F82A1108F0CC
:10A70000EFFB63680198B3F8541008F0EDFB636841
:10A710000198B3F8281108F0EBFBB0E7154B019A4C
:10A720005B6893F83C11012915BF93F8681093F802
:10A730003E111171117114BF93F8693093F83F31D4
:10A7400053719CE70198FFF70BFC98E70A4B094A05
:10A750001B6801992046984791E7064B01985B6872
:10A7600093F8AF22D3F8B01208F049FB87E702B0A4
:10A7700010BD00BFC80E0020D001002070B5274CCE
:10A78000636893F8B66293F8B752002E3FD193F8FE
:10A790006C10002D3DD193F86D2083F86C1083F878
:10A7A0006D20FF2283F86E201D4B1B680BB1606883
:10A7B0009847636893F83C31012B02D056EA0503B1
:10A7C00003D016480021FEF741FC6068343008F0E1
:10A7D0000AFC0546606800F5B071FFF7EBF96068A8
:10A7E0000521FDF765FF6068343008F0FCFB854209
:10A7F000044610D202F0DCFA0146601B6F2838BF15
:10A800006F2005F08DF9B0FA80F0400970BD314637
:10A81000BFE72A46C1E70120F8E700BFC80E0020C5
:10A82000D801002008B50C4B5B6893F82621FE2A5E
:10A8300004D040F6A5013120FBF70AF983F8260180
:10A8400011B9A3F8D81008BD0022A3F8D220012224
:10A8500083F8D620F7E700BFC80E00200D4A117D0F
:10A8600099B940B95068B0F85C10B0F840209142F6
:10A870000BD8FDF70FBF13891B0708D5536893F852
:10A880009F00073818BF0120704700207047012043
:10A89000704700BFC80E002010B5164BDB68197951
:10A8A000436893F89D20092A09D193F821218A420F
:10A8B00005D1002283F89D2083F8D62010BDD3F85F
:10A8C0008C2012F0080407D022F00802BDE81040E6
:10A8D000C3F88C2008F016BCFF2905D1312283F87B
:10A8E0009D2083F8AC42E9E740F272413120FBF74A
:10A8F000AFF800BFC80E002010B50B794268172BC7
:10A9000092F89D2004460CD80D2B0CD9A3F10E0112
:10A91000092908D8DFE801F009070707090709072F
:10A920001009232B26D0002010BD22460121BDE8AE
:10A930001040184608F052BE212A01D02E2AF2D12A
:10A94000204608F0CCFB636893F89E20222AEAD0C8
:10A9500093F8ED2022F0010283F8ED20626892F86E
:10A96000ED3023F0080382F8ED301A212046FEF77F
:10A970006DFBD8E7282AD6D1024B1B68002BD2D01A
:10A980009847D0E7DC0100201D4B1E4A9A601E4A02
:10A990005A601E4A1A601E4A9A621E4ADA621E4AAB
:10A9A000DA601E4A9A611E4A1A631E4A1A621E4AD9
:10A9B000DA641E4A9A641E4A5A641E4A5A631E4A40
:10A9C000DA611E4A5A621E4B1E4A9A601E4ADA61BA
:10A9D0001E4A5A621E4ADA621E4A1A611E4A5A61A9
:10A9E0001E4A5A641E4A5A631E4A9A611E4A1A63D4
:10A9F0001E4A9A641E4ADA641E4A9A63704700BF70
:10AA000078000020DBA10100010D01006D0D0100A7
:10AA1000A7A2010079A30100F3A201008FA3010006
:10AA2000B50F01005D0E01003BA4010063A401000D
:10AA300009A70100AD140100F9180100B10E0100D1
:10AA40002401002007A2010099180100D9A50100E6
:10AA5000B5A60100D5A5010097A60100D9A6010061
:10AA600079A60100B9130100D1A501009BA4010042
:10AA700089A40100CDA501002DE9F3418B4C228969
:10AA80006368D20555BFB3F8CC2000220132A3F889
:10AA9000CC204CBF83F82422A3F8CC2007460E46D6
:10AAA000FFF72AFD50B1238960681D0536D590F85F
:10AAB000A330002B32D00023C0F8C030238903F428
:10AAC000407333B1606890F8A130002B43D0032B62
:10AAD00047D06368218993F8A120012A04D1480551
