:020000040000FA
:10000000005C00205D1D000097680000491D000095
:10001000491D0000491D0000491D000000000000AE
:100020000000000000000000000000000D1F0000A4
:10003000491D000000000000B91E0000491D00001D
:10004000DD200000DD200000DD200000DD200000BC
:10005000DD200000DD200000DD200000DD200000AC
:10006000DD200000DD200000DD200000DD2000009C
:10007000DD200000DD200000DD200000DD2000008C
:10008000DD200000DD200000DD200000DD2000007C
:10009000DD200000DD200000DD200000DD2000006C
:1000A000DD200000DD200000DD200000DD2000005C
:1000B000DD200000DD200000DD200000DD2000004C
:1000C000DD200000DD200000DD200000DD2000003C
:1000D000DD200000DD200000DD200000DD2000002C
:1000E000DD200000DD200000DD200000DD2000001C
:1000F000DD200000DD200000DD200000DD2000000C
:1001000053B94AB9002908BF00281CBF4FF0FF317E
:100110004FF0FF3000F00CB8ADF1080C6DE904CEE3
:1001200000F008F8DDF804E0DDE9022304B07047D0
:10013000704700BF2DE9F04786468C460846089E6A
:10014000154674461946002B40F0C2808542B2FA2B
:1001500082F245D94AB1C2F1200300FA02FC2EFA1C
:1001600003F3954043EA0C0C94404FEA154EA8B2B5
:10017000BCFBFEF8230C0EFB18CC08FB00F943EA8D
:100180000C43994528D9EB1808F1FF3704D299455B
:1001900002D9A8F102072B44A3EB0903A4B2B3FBD5
:1001A000FEFC0EFB1C330CFB00F044EA0344A042AF
:1001B00014D92C190CF1FF3304D2A04202D9ACF1AE
:1001C00002032C44241A43EA07401EB1D440002302
:1001D00034607360BDE8F0874746DDE76346F1E7CA
:1001E00092BB431B01214FEA154EAFB2B3FBFEFC9D
:1001F000200C0EFB1C330CFB07F840EA0343984528
:1002000062D9EB180CF1FF3004D2984502D9ACF159
:1002100002002B44A3EB0803A4B2B3FBFEFC0EFBCD
:100220001C330CFB07F744EA0344A7424ED92C19B0
:100230000CF1FF3304D2A74202D9ACF102032C44E3
:10024000E41B43EA0040C0E7C2F1200320FA03F1B7
:10025000954090402EFA03F303434FEA154EAFB298
:10026000B1FBFEFC0EFB1C10190C0CFB07F841EA5D
:100270000041884504FA02F422D969180CF1FF30D4
:1002800004D2884502D9ACF102002944A1EB08014F
:100290009BB2B1FBFEFC0EFB1C110CFB07F743EA03
:1002A00001439F420ED9EB180CF1FF3104D29F425B
:1002B00002D9ACF102012B44DB1B41EA004192E779
:1002C0006046E3E76146F7E76046A3E76346B7E7C2
:1002D000834206D916B9002108467BE7C6E900E04B
:1002E000F9E7B3FA83F78FB9834201D3724508D88F
:1002F000BEEB020460EB030301209C461EB9002103
:1003000068E73846FAE7C6E9004CF8E7C7F1200C81
:10031000BB4022FA0CF41C432EFA0CF120FA0CF329
:10032000B84001434FEA14490EFA07F5B3FBF9F858
:100330001FFA84FE09FB18300B0C08FB0EFA43EA87
:1003400000439A4502FA07F240D9E31808F1FF305A
:1003500004D29A4502D9A8F102002344A3EB0A0370
:1003600089B2B3FBF9F809FB183308FB0EFE41EA2A
:1003700003418E452CD9611808F1FF3304D28E4514
:1003800002D9A8F10203214443EA0040A0FB0298ED
:10039000A1EB0E014145CE46434602D306D14D4561
:1003A00004D2B9EB020E68EB04030138002EA6D08C
:1003B000B5EB0E0261EB030101FA0CFC22FA07F324
:1003C0004CEA0303F940C6E9003198E74046C5E727
:1003D0004346D9E7F0B5284B284AC3F8002685B034
:1003E000C3F80426C3F80826C3F80C26C3F8102661
:1003F000C3F81426C3F81826C3F81C2600F06AF8C0
:1004000001A800F0EDFC1E4B1B68834204D01D4880
:10041000452106F0BEF9FEE74FF44041002006F00A
:1004200081FC044620B11848452106F0B2F9FEE7E8
:1004300069469DF8080000F02BF8009B039D1D44C1
:10044000019B1E8903F004F8AF1900F053FF00F080
:1004500027FF01F0BFFCAB5983F3088884F31488AD
:10046000BFF36F8FBFF36F8F7B68984707484521B5
:1004700006F08FF9FEE700BF000001403546526EDE
:1004800070030020388B00005B8B00008E8B000017
:1004900008B5024638B105480023452106F079F930
:1004A0006FF0150008BD0860FCE700BFB18B0000CD
:1004B00021B1012906D06FF015007047044B53F8A5
:1004C00030007047024B03EBC0035868704700BF11
:1004D0006888000002484FF4C05103F075BC00BFAB
:1004E000361100202DE9F04FF9B0DDE98489DFF8FD
:1004F000BCB1869FDBF8005038A816461C4607F0B2
:10050000EAFC002138A803F095FDB8F1000F07D0F0
:10051000B9F1000F04DD4A46414638A807F0E4FC73
:1005200033897289D6F80CA013449A444FF000081E
:10053000C24544D80DA938A807F015FD27B12022DF
:100540000DA9384606F007FA0023009322464FF61D
:10055000FF73314607A805F0AFFD804660BB20461B
:100560000C9E00F0D9F9864226D8DFF844914FF06E
:10057000FF370DF1160305AA06A907A805F0EAFD45
:10058000002819DB40F08A80BDF81660102E2ED1AD
:10059000BDF81460202E0FD10699334638AA2046A4
:1005A00006F005F940B9324638A90DA805F01EFE3F
:1005B000404B1B68834217D0DBF8005071E0839BEF
:1005C000829AAAEB0809994528BF99464B464146AD
:1005D000204606F0ECF80028EED182994A4638A869
:1005E00007F082FCC844A3E74FF00108C1E7012EE1
:1005F00035D1BDF81430202BDED8069938AA204614
:1006000006F0D5F807460028D6D19DF814A0BAF117
:10061000200F02D94FF0FF37ABE7D9F80030264E54
:100620000393039B9F42F5DA1DA807F054FC0021B9
:100630001DA803F0FFFC726856F8081B12681DA87D
:1006400007F052FC15A91DA807F08DFC524638A9E9
:1006500015A806F070F900288BD00137E1E7202EAD
:1006600087D17B1C85D0D9F80030BB42D2DDBDF8E4
:100670001430B3F5807F9FD1069938AA204606F042
:1006800096F8002898D1FFB2BDF81430009738AA28
:1006900031460DA800F012F80546BBE7B8F1000F8F
:1006A0008AD0284679B0BDE8F08F00BF9C000020BA
:1006B0007088000070030020748800002DE9F04F5E
:1006C000DFF8D4A1ADF5417D07462AA89DF828B3EF
:1006D000DAF800501E468946904607F0B5FB09221D
:1006E00001212AA803F022FC6C4B53F83B400594EF
:1006F00003EBCB0380AA5B681B681C4421463023B4
:1007000005A806F0FDFB002840F0BE80059B809AFE
:1007100013449C4240F0B8802CAA214605A806F05C
:1007200003FC002840F0B0800DF1B80B5A4621467A
:1007300005A806F0F9FB0390002840F0A5802CA83E
:1007400006F010FF059A2B90944240F09D80039B89
:10075000CDF804B000931A462CA92AA807F031FB63
:10076000002840F091802AA803F0F6FB002840F012
:100770008B802CA806F0F6FE2B902AA807F06EFBC3
:10078000864240F08180B6F5807FDAF800507BD158
:10079000B9F1200F78D180AA41462AA803F002FCC3
:1007A0000446002870D19DF8FF32BC2B6CD1069016
:1007B0000DF59079DF260FA807F08DFB00210FA81B
:1007C00003F038FC20220DF2DF210FA807F08CFB8C
:1007D000042206A90FA807F087FB07A90FA807F0B6
:1007E000C2FB202E9DF81B30B046A8BF4FF020085A
:1007F00001334846424607A9A6EB08068DF81B3090
:1008000006F0A9F8002EC144D5DC48AB80AA1846F2
:1008100000219C46067812F801EB013186EA0E06AB
:10082000DF2900F8016BF5D11A7802F07F021A7007
:1008300013F8016B46BB0134BE2CF9D19CF8BE30D5
:10084000012B21D10FA807F046FB31460FA803F07A
:10085000F1FB134908220FA807F046FB3946202276
:100860000FA807F041FB20220DF2DF110FA807F0BF
:100870003BFB07A90FA807F076FB20220DF2DF2132
:1008800007A805F0B3FC05462AA807F0E9FA2846B0
:100890000DF5417DBDE8F08F9C00002074880000BC
:1008A000D78B0000094A0B78400052F820108B4289
:1008B00009D0013052F82000834214BF4FF0FF30BE
:1008C0004FF4C07070474FF4C07070477C880000D0
:1008D0001FB50F4B13F830000C4601F085F850B9E6
:1008E0002068816810236A46103905F060FF28B13E
:1008F000206805F05BFF4FF0FF3006E0054910224D
:10090000684606F018F80028F2D104B010BD00BF08
:100910007C880000288B000013B5044605F06DFCB0
:100920006A460146204605F0AEFB30B10448452139
:1009300005F02FFF002002B010BD0098FBE700BFBC
:10094000DF8B00002DE9F041364B88B006460020D1
:100950000D461C68FFF7ACFD06A9C0B201F044F8D3
:10096000002858D12946FFF7A3FD2C2407A9C0B2BF
:1009700004FB056401F038F8002833D02C276F43BE
:1009800006EB0708069BD8F8101011F0100138D1BB
:100990004FF480720192244A0092CDE9031122465D
:1009A00002910846FFF79EFD0446204BF259069837
:1009B0009A420CD1D8F80C20B8F808309B1806D20F
:1009C0008268934203D21A4B1B68A34220D035B3EE
:1009D0008268002105F015FF164A1748452105F0E9
:1009E000D8FE13E0079805F027FF0746079805F0A3
:1009F000DDFE631EE21C13F8011FB942BED1934213
:100A0000F9D11DB10699304605F0E1FC0B4B1C688D
:100A1000069805F0CBFE204608B0BDE8F081084AF4
:100A2000DBE700BF9C000020362900203DB8F3968C
:100A300070030020228C00002C8C00009800002005
:100A40001A8C00007FB50D46044600212846CDE9EA
:100A5000021105F07BFC28B32368194EB34203D181
:100A600003AA204605F007FCE36AB34204D102AAB8
:100A70000121204605F0FFFBDDE90232934288BFE9
:100A80000393039BAB60039A2946204600F018FBB2
:100A90000C4B1A68002A03DD0B48572105F079FE3C
:100AA00004B070BD01A9FFF713FF019805F108011B
:100AB00005F0AEFBAB680198039305F077FEE2E723
:100AC0003DB8F396D40F0020548C00002DE9F84F68
:100AD000DFF870B01C4C1D4D884691469A460026A2
:100AE0000B9B9E4201D300200FE00B9B154A9F1BDE
:100AF000B7F5806F28BF4FF480673B4606EB0A01CD
:100B0000404605F054FE10B10120BDE8F88F0A9967
:100B10003B465A467118484605F05EFE0028F3D160
:100B2000C4F800563E44C4F80456C4F80856C4F845
:100B30000C56C4F81056C4F81456C4F81856C4F825
:100B40001C56CDE7740B0020000001403546526E64
:100B5000F0B5994B43620E46984B0365002189B06E
:100B600004460846FFF7A4FC04F120010546C0B284
:100B700000F03AFF0346E8B90121FFF799FC04F1C0
:100B80004C010546C0B200F02FFF0346E0B92046F5
:100B900005F0B2FB0546C8B900221146204605F013
:100BA00054FB054660B386480022572105F0F1FD4D
:100BB00001239CE00022CDE90023824800232A463D
:100BC000452105F0E6FDFEE70122F4E77E4880229C
:100BD000572105F0DEFD01239D4284F85830DBD11A
:100BE00094F858308DF81730042B00F28380012BD5
:100BF00000F2878000F09A80FF2384F8583095E057
:100C0000204600F0FFF90028D2D004A805F095FB9B
:100C10000146204605F030FC18B16C482A465721A1
:100C2000C4E704A805F092FB80F0010104AAC9B250
:100C3000204605F00AFB02460028B4D104A805F0BE
:100C400085FB054660BB04A92046FFF7FBFE9DF827
:100C5000173084F85830033B012B06D8284600F0A3
:100C6000E5F810B1FF2384F858309DF81730023BA7
:100C7000022B0BD8002000F0C3F838B1FF2384F812
:100C800058305348452105F084FDFEE794F858306C
:100C9000FF2BF6D004AA0021204605F0D6FA87E7FC
:100CA0009DF81770012F17D1104602F07DFC831EAE
:100CB000022B05460DD839462046FFF743FE454B2B
:100CC0001B68984205D0444B1D68A84214BF0525F7
:100CD000012584F8585083E701212046FFF732FEB2
:100CE0003C4B1B6898420CBF9DF81730052384F8D5
:100CF000583075E7052B7FF47FAF002000F096F8A1
:100D000011E004A92046FFF79DFE94F85830DA1E42
:100D1000012A14D8002000F089F800287FF46CAF75
:100D2000002000F06DF800287FF466AF94F858308A
:100D3000FF2B07D12648452105F02BFDFEE7022BAE
:100D4000F4D1EDE70022012B244D039214D011467B
:100D5000204605F07AFA78B12D68102200210DEBBB
:100D6000020005F003FEE06C05F020FD206A05F0AE
:100D70001DFD284609B0F0BD00212046FFF7E2FD29
:100D8000144F3B689842E7D12B689842E4D0124B4D
:100D90001B689842E0D0039B01330393039B012B14
:100DA00000D0FEE7206A05F06CF93071236A5B68B9
:100DB00034603D68B360D0E77407002074030020FE
:100DC000128D0000838C0000D08C00003E8D00004E
:100DD000688D000070030020980000209C00002017
:100DE00038B5064D044660220021284605F0BEFDB8
:100DF00021462846FFF7ACFE38BD00BF740F002027
:100E000013B5094B01A913F8300000F0EDFD48B906
:100E1000019806F039F80446019805F0C7FC204611
:100E200002B010BD0124FAE7848800001FB50F4B03
:100E300001A913F8300000F0D7FDA8B9019802A964
:100E400002F05CFB044668B99DF80B30032B03D11C
:100E5000019805F0E7FF0446019805F0A7FC20463D
:100E600004B010BD0124F7E70124F8E784880000EE
:100E70002DE9F34106460C4617461D460BB90026E0
:100E800028E0184605F062FA0028F8D16946FFF715
:100E90001FFD009838B90124009805F087FC204612
:100EA00002B0BDE8F08101A905F0B2F90028F2D145
:100EB000009805F07BFC3046019905F019FB736A38
:100EC0005E686B79012B21D1002CD8D12B6883422D
:100ED00098BF002621460020FFF7EAFA6946C0B213
:100EE00000F082FD0028D6D1009820233A463146F2
:100EF00005F05DFC04460028CDD1002DCCD03C6827
:100F00000D4BE41A18BF4FF0FF34C5E7022BB6D1E2
:100F10002B68012B05D98342B1D8B4FA84F4640953
:100F2000ADE7ACD1002CD5D0012CA8D12C79023C56
:100F300018BF0124A3E700BF3DB8F3962DE9F04F99
:100F4000074685B00C46014600201646FFF7AAFC6E
:100F5000051E50DB3846E46D05F04FF95FFA84F961
:100F60006B1E09FB03084FF0000A4FF0010B4FF016
:100F7000FF349DB9BAF1010F03DD2148452105F089
:100F800008FC631C06D07F2C2ADC013440F20113DC
:100F90003460B380284605B0BDE8F08F6B1E009327
:100FA0000DF10F0201234146384605F000FC031EF7
:100FB000019322DB01220DF10F01384605F0CDFE31
:100FC000019B40B15B4501D00AF1010A009DA8EBED
:100FD00009089B46CDE7B4F1FF3F08BF2C46F5E773
:100FE0000223803C7371631004F001040133013467
:100FF00033603471CEE70725CCE70125CAE700BF8F
:10100000748D000038B5816A426D914208D0531C3E
:101010008B4205D01348572105F0BBFB002038BD9B
:1010200080291CD910485721F6E7446A056D04EB66
:10103000C30405EBC30564686D68AC4202D00B487D
:101040005721E9E701339A42EFD1914205D9436A2A
:1010500003EBC2035B68A342F1D10120DFE7002369
:101060001C46F0E7978D0000CF8D0000FE8D00003C
:1010700073B54B681446114A03F0FF2393420646AA
:101080000D4618D10B68012B15D16946204602F098
:1010900035FA9DF80030032B0DD12146304605F07E
:1010A00096F9204605F0BEFEA968204605F0BEF878
:1010B000204602F003FA02B070BD00BF0001000438
:1010C0002DE9F04F0C4689B01146054605F010FA9F
:1010D0006B6A824620465E6805F038F9E8B1E86D33
:1010E00005F086F8AF6A0023013F3344984201D9E6
:1010F000013FFAE7BA4510D36648572105F049FB8E
:1011000007FB06F364480AFB0662572105F041FB22
:101110000123E37109B0BDE8F08F06A9022000F0B9
:1011200063FC07A9052000F05FFC079A21462846CA
:10113000FFF79EFF6379012B4BD1DFF860B1574673
:1011400041E02268C2F1010353449F423AD86B6ADE
:10115000196853F8370003EBC703012A53F8083C1A
:10116000A3EB0103A0EB0109049311D1079B0393A7
:10117000E368022B08D04146284605F028F92246AC
:101180004146284605F059F90399284605F01FF90C
:1011900032464946404605F018F9049B424641460E
:1011A000CDE900962846FFF791FC2146284605F038
:1011B000DAF823680133236020B1DBF80030013313
:1011C000CBF80030013FDDF81880002FB9D10123A2
:1011D0002360022363710127BA45DDF8189006D217
:1011E000484605F0E3FA079805F0E0FA92E723682D
:1011F0009F424DD36A6ADDF81CB052F83710049153
:10120000FB00083B11680391D1582A6DD058136830
:10121000A0EB03082379012B38D1039B3246C91A6E
:101220004846059105F0D1F80599009143464A4694
:10123000594601962846FFF749FC2146284605F005
:1012400092F80223237118B1144A13680133136012
:1012500032464146584605F0B8F8DDE903234946D1
:101260009B1ACDE900865A462846FFF72FFC2146F7
:10127000284605F078F823680133236001232371A1
:1012800030B1064A13680133136001E0022BDFD04E
:101290000137A1E72A8E0000598E0000D40F0020EC
:1012A000BFF36F8F72B6124B4FF0FF32C3F880203E
:1012B000C3F88420C3F88820C3F88C20C3F890209A
:1012C000C3F89420C3F89820C3F89C20C3F8802169
:1012D000C3F88421C3F88821C3F88C21C3F8902176
:1012E000C3F89421C3F89821C3F89C21704700BF2C
:1012F00000E100E0164A4FF0FF3301215160C2F8CF
:101300004833C2F8083302F5C0425160C2F848338E
:10131000C2F8083302F598325160C2F84833C2F877
:101320000833A2F508320021C2F80015C2F80833CC
:1013300002F51832C2F80015C2F80833A2F51042BF
:10134000C2F808354FF08042C2F80833704700BF3A
:1013500000B00040014B1B68184700BFA0000020F0
:1013600007B50B46002102460091034800F014F92E
:1013700003B05DF804FB00BF551300002DE9F047F2
:10138000058B04462807904611D4022905F007056D
:1013900040F0CD80204605F0FDF878B10138218B72
:1013A000042811D8DFE800F0C3106D8595000129ED
:1013B0000CBF45F0100545F02005258388F3118802
:1013C000BFF36F8FBDE8F08701F0070AAA4500F070
:1013D000A6800027B9463E46A368002B00F0BD80DA
:1013E00041F00801218388F31188BFF36F8FA16852
:1013F000002900F0BB800D68002900F0B780D1F80B
:101400000480334652462046C047002D76D02B68D4
:1014100029461D46F0E701F007035A1F012A1BD891
:10142000002221F00701062B276889B2C4E90022B7
:1014300009D13B4603E0628B013262831B68002BBB
:10144000F9D141F002012183204605F0A3F80028DC
:101450007BD041F0200177E0042B0AD121F0070175
:1014600089B22183204605F095F810B141F02001A2
:101470002183218B01F0070AAA4550D00027B946E5
:10148000AAE7236921F0070141F00601062DD3F8F0
:10149000009021832DD1B9F1000F40D041F0080117
:1014A000218388F31188BFF36F8F3A492046C847DC
:1014B00029E021F00701236941F0040189B2042DDC
:1014C000D3F804902183E6D000273E464FF0040A6B
:1014D00082E721F00701236941F0050189B2052D5A
:1014E000D3F808902183D6D000273E464FF0050A56
:1014F00072E700273E464FF0060A6DE72B4687E766
:10150000B9F1000FD1D14FF02003EFF3118883F32D
:101510001288BFF36F8F238B23F008032383258B5F
:10152000EA062ED525F01003238305F0070566692A
:10153000218B002EBFF66FAF00232768C4E900336C
:1015400021F0070141F001012183218B01F0070AFD
:10155000AA454FF000097FF43FAF002F9BD041F028
:101560000801218388F31188BFF36F8F002FC7D044
:101570003D68394633465246204605F037F82F4637
:10158000F4E7AB067FF51AAF25F02003238305F0BF
:101590000705FFE6196600002DE9F04F8DB01D46E6
:1015A000531E8246019103934FF00009039B587824
:1015B000252803F1010419D11E4600204FF0FF3801
:1015C000023603460290444631780396392954D8AE
:1015D0001F2914D8002900F0EE8101992520D04759
:1015E00001993078D04709F10209DFE7002800F0BF
:1015F000E2810199D04709F101090394D6E7A1F1ED
:101600002002192AE9D801A757F822F07516000020
:10161000DB150000DB15000075160000DB1500006F
:10162000F5160000DB150000DB150000DB150000DF
:10163000DB1500004117000075160000DB150000E7
:101640005517000001170000DB1500000F17000000
:101650002F1700002F1700002F1700002F17000072
:101660002F1700002F1700002F1700002F17000062
:101670002F17000008460136A6E7582900F0EB8036
:10168000A1F16302D7B2172FA7D8172AA5D801A7AF
:1016900057F822F0FD1800007B170000DB15000052
:1016A000DB150000DB1500005B1700007B17000056
:1016B000DB150000DB1500005B170000DB150000E8
:1016C000DB150000DB15000031180000DB15000001
:1016D000DB150000D1180000DB1500007B170000AF
:1016E000DB150000DB15000031180000DB150000E1
:1016F0005B17000001992520D04709F1010955E742
:10170000029A02F0FE0202924FF00008B3E7002CAA
:101710000DDAB8F1000F0DDA029A002A00F04381C9
:1017200024EAE4740A2202FB0414303CA3E7B8F173
:10173000000FF5DB0A2202FB0812A2F130089AE73B
:10174000B8F1000F55F8042B80F22F81002A80F2A7
:101750002E815442022202928DE7682903D1682B20
:1017600006D1482387E76C2902D16C2B00F0218138
:10177000002B7FF432AF0B467DE77A2B06D175291B
:1017800055F8046B14D14FF0000B0CE06C2BF6D025
:101790004C2BF4D1073525F007037529D3E9006BED
:1017A00003F1080506D120283BD1854F013C09E013
:1017B0004FEAE67BBBF1000FF5DA7642814F6BEB27
:1017C0004B0B013C0DF12D03059300230493304690
:1017D00059460A220023FEF793FC059B303203F89A
:1017E000012DB4460593049B5A46BCF10A0F8B4663
:1017F00072F1000203F1FF3106460491E7D2C3F112
:10180000010B30330DEB0306B8F1000FA6F104060F
:101810006DDA029BD9077DD4A8EB0B03A4EB0B0474
:1018200013E02B280ABF684F684F04F1FF34C9E763
:1018300070290FD155F8042B0023FAB9634F644E79
:10184000053C6FF004034FF0050B029A920770D429
:10185000A04666E078216C2B03D155F8042B0023B9
:1018600008E04C2BF9D1073525F007031D465B68CE
:1018700055F8082B232825D1880621D5554F023C41
:1018800001F06001A1F1390B0DF12D0E002602F0DF
:101890000F01092988BF594430310EF8011D102A63
:1018A0004FEA121141EA03714FEA131C73F100036E
:1018B00006F1FF3008D2C6F1010B06F13003A1E7B3
:1018C000454FDCE7414FDBE706460A466346DEE765
:1018D00055F8046B304605F027F8B8F1000F834641
:1018E00002DB4045A8BFC346384F4FF00008A8EBC5
:1018F0000B03002B92DDA4EB0804A6E755F8043B8C
:101900008DF81830314F013C4FF0FF334FF0010B91
:1019100006AE9AE7A046EAE7029301992020D04755
:10192000029BB8F10108F7D524EAE472013C914426
:10193000A41AB84606E0049302920199D047029A8D
:10194000049B9046424612F8010B0028F3D11A4638
:10195000013A15D5002BACBFC7EB03077F425B46AE
:10196000013B15D5BBF1000FA8BF5F444F4426468D
:10197000013E14D5002CA8BF3F1907EB080915E656
:101980000493029201993020D047049B029ADFE72A
:101990000293019916F8010BD047029BE0E70199E9
:1019A0002020D047E4E70122D5E6904663E61446BE
:1019B00061E64C235FE648460DB0BDE8F08F00BFFE
:1019C0009A8F0000988F00009C8F0000738D00009C
:1019D000A48F00009E8F0000A18F0000014B0360C8
:1019E000002070479088000070B5114B1C680D46B0
:1019F000DCB1104B196800238B4202DB6FF0010051
:101A000070BD224612F8106B864202D00133144694
:101A1000F2E7E06810B96FF01200F1E706F019FC88
:101A20000028F8D02C600020EAE76FF00C00E7E710
:101A3000A40000209088000070B588B005460C46D0
:101A4000C0B269461646FFF7CFFF00281BDB00989F
:101A5000C8B143680293836822680195CDE90336D3
:101A60000023CDE906230593C56804F09FFE6DB100
:101A70002846084901AA05F089F8079808B9059B86
:101A8000236008B070BD6FF01500FAE76FF0120028
:101A9000F7E700BF4768000030BFFFF7FDBF00BF9A
:101AA000044B99685869884203D003494FF080522B
:101AB0000A607047FC10002004ED00E070B5264B72
:101AC00015469A6A12F0100F9A6A14BF1124102456
:101AD00012F0080F9A6A18BF1224920706460AD518
:101AE000586B9A6A140634D519B19A6A22F08002AA
:101AF0009A62132401E06FF01500174B9A6A12F0F6
:101B0000010F9A6A18BF142412F0200F9A6A18BFA6
:101B10001524D20602D49B6A9B070AD50E4B5B683C
:101B2000190506D5314600F081FA10B180F3098815
:101B30000224094B9A6A920642BF5A6A22F4005262
:101B40005A629A6A42F0FF029A6200232B70204682
:101B500070BD6FF01500CCE700ED00E0134B9A6A02
:101B600012F0007F9A6A14BF1E201D2012F0807FA1
:101B70009A6A18BF1F2012F4002F9A6A18BF2120FA
:101B800012F4802F9A6A18BF222012F4003F9A6A3A
:101B900018BF232012F4803F9A6A6FEA02426FEA6C
:101BA00012429A6218BF2420704700BF00ED00E087
:101BB00010B5194B0246986A9C6A10F4805F14BFF6
:101BC0001720162014F4006F9C6A18BF1820A40573
:101BD00009D5986B986A000404D51AB19A6A22F460
:101BE00000429A6219200C4B9A6A12F4806F9A6A2A
:101BF00018BF1A20D2050CD49B6A13F4005F18BFDB
:101C00001C20054A936A43F47F43936200230B70C0
:101C100010BD1B20F5E700BF00ED00E070B5454B9F
:101C20005B688AB00546C3F30803002686F3118873
:101C3000BFF36F8F02F07F40B0F17F4F11D102F000
:101C40000C0008280DD010074CBF0D4601260022BD
:101C5000033B8DF80720032B05D8DFE803F01E5D5A
:101C6000615A3546F3E700249DF807309BB92022DE
:101C7000294602A804F06FFE099B002E54D0C3F33E
:101C8000080222B96FEA53236FEA4323099302A99A
:101C9000204604F0FAFD0AB070BD264BDA6A9107BF
:101CA000E1D4DA6A002ADEDBDA6A5200DBD55A694F
:101CB000A96942F480725A61BFF34F8FBFF36F8FEF
:101CC0005A6931F8021C22F480725A61BFF34F8FB7
:101CD000BFF36F8F4DF6027291420AD09A6AD2B268
:101CE0004AB10DF1070201212846FFF7E7FE04463D
:101CF000BAE72C68B8E79A6A12F47F4F05D00DF165
:101D000007010120FFF754FFF1E79B6AB3F5803F1D
:101D1000A9D3FFF723FFEAE70DF107020021E3E76C
:101D20000DF107010020EDE723F4FF7323F0010319
:101D3000ACE700BF00ED00E0024A536943F0100336
:101D40005361704700ED00E0EFF30880EFF3098185
:101D500001B57246FFF762FF01BD00BF002080F3AE
:101D60001488BFF36F8F00F0D9FA00200D49086086
:101D7000BFF34F8F0C4880F3088800F03DF8202017
:101D800080F3118809484FF40461401880F30988F2
:101D9000EFF314800221084380F31488BFF36F8FA0
:101DA00000F00CF994ED00E0005C0020402A0020D7
:101DB000BFF34F8F0549064BCA6802F4E062134334
:101DC000CB60BFF34F8F00BFFDE700BF00ED00E029
:101DD0000400FA050749D1F890200023C2F3072236
:101DE0001846934200DB7047C1F89830C1F8A00054
:101DF0000133F6E700ED00E008B572B6002383F387
:101E00001388FFF7E7FF144B4FF0FF32C3F8802031
:101E1000C3F88420C3F88820C3F88C20C3F890202E
:101E2000C3F89420C3F89820C3F89C20C3F88021FD
:101E3000C3F88421C3F88821C3F88C21C3F890210A
:101E4000C3F89421C3F89821C3F89C2162B6BFF36C
:101E50004F8FBFF36F8F08BD00E100E0084B9B6818
:101E600083420BD1EFF3058343B1064B5A6842F02E
:101E700080525A605A6A22F400425A6206F047BB06
:101E8000FC10002000ED00E0094A93686FF00A01A1
:101E90009967084958674B6843F080534B600023AB
:101EA00083F31188BFF36F8F9368986F704700BFFB
:101EB000FC10002000ED00E012498A684FF030006D
:101EC0001044EFF3098C80E8F01F202080F3128883
:101ED000BFF36F8F0C4F4FF000664A698A603E6017
:101EE000506F0023536780F3118804B5104600F04B
:101EF00015F9BDE8044002F1300090E8F01F8CF3C2
:101F000009887047FC10002004ED00E01EF0040F6B
:101F10000CBFEFF30880EFF30980816911F8021C10
:101F20000229FFD001B504F0B2FC01BD40B2002887
:101F300007DB044A4109012300F01F00834042F8F7
:101F40002130704700E100E040B200280CDB43097B
:101F5000064900F01F0020330122824041F823206F
:101F6000BFF34F8FBFF36F8F704700BF00E100E0FA
:101F7000054B420900F01F0053F82220012303FA09
:101F800000F01040704700BF00E100E040B20028C0
:101F9000A8BF00F1604001F10101B8BF064B4FEA54
:101FA0004111ACBF00F5614000F00F00C9B2B4BFF1
:101FB000195480F80013704714ED00E00B4A08B57F
:101FC0000B4B22F07F029A60BFF34F8FBFF36F8FEE
:101FD000D3F8882022F47002C3F8882002F078FF3A
:101FE00003F028FE00F06EF802F0C4FF00000000CD
:101FF00000ED00E042F8203C009B42F81C3C0A49FE
:10200000019B42F8183C029B42F8143C21F001016C
:102010004FF0807342F8043C42F8081C0023203A39
:1020200002654367704700BF81650000094A0346A7
:10203000906870B113F1160F406E05D0A0F1400208
:102040009A4205D8834203D2814228BF00207047BC
:1020500000207047FC10002008B5094B0D461446BF
:10206000986000F05BF8204685F30988002163B68C
:1020700081F31188BFF36F8F0022002304F080FAF0
:10208000FC100020014910220A60704710ED00E0AA
:1020900072B6404080F31188BFF36F8FBFF34F8F4C
:1020A00030BF62B6BFF36F8F704700BF72B6494052
:1020B00081F31188BFF34F8F20BF80F3118862B680
:1020C000704700BF044800232021C2180133302B81
:1020D00082F80013F9D1704700E100E001B5EFF399
:1020E0000580A0F110004FEAC0000449014409C96D
:1020F0009847BDE80140024908470000D886000023
:10210000A11A0000024B034A0348012100F040B825
:10211000000002200000002004890000426E054BF0
:10212000403A1A60044A4021C3E9011218460121CD
:1021300000F038B8D80F002000000B15084AC2F88C
:1021400098000B6823F01F03034343F01003C2F809
:102150009C308B6843F00103C2F8A030704700BF89
:1021600000ED00E0044B0522C3F89420BFF34F8F2D
:10217000BFF36F8F704700BF00ED00E0BFF35F8FCC
:10218000024B0022C3F89420704700BF00ED00E02E
:1021900010B5034C0123227804F098FB207010BD89
:1021A000362A002008B5094A0023127804F08EFB75
:1021B00010F1160F03D0064B0022072800DD08BDE2
:1021C000C3F89800C3F8A0200130F6E7362A0020B3
:1021D00000ED00E0F0B5454D2C68082C85B000F20C
:1021E0008280FFF7CBFF00200C2684420DD1404DAA
:1021F000404F2C706846FFF7F1FB00240646A642CC
:102200000AD1FFF7AFFF00201CE0696806FB001150
:10221000FFF794FF0130E8E7009800EB04114FEA64
:10222000041CCB683B40B3F5000F4AD00CD8B3F583
:10223000001F30D0B3F5800F38D0B3F5801F12D017
:102240006FF0150005B0F0BDB3F1807F42D0B3F15F
:10225000007FF5D150F80C3088684A6804F026FBFE
:1022600040F4802009E050F80C3088684A6804F097
:102270001DFB40F0885040F4302003902878072858
:10228000CDE90123DCD801A9FFF758FF2B780133F2
:102290002B700134B3E750F80C3088684A6804F0BA
:1022A00005FB40F0885040F40020E6E750F80C3081
:1022B00088684A6804F0FAFA40F0007040F4003090
:1022C000DBE750F80C3088684A6804F0EFFA40F019
:1022D0008270D2E750F80C3088684A6804F0E6FA59
:1022E00040F08870C9E74FF0FF30ABE7108900007D
:1022F000362A00200000F0FF024B0122C3F84025DF
:102300000020704700E0014020B1034B800143F002
:1023100001031847704700BF6088000001F08EBFBE
:10232000054B0122C3F8002590F8761009B1DA6058
:1023300070471A605A60704700700040087970B5A5
:1023400000F01F04072C20D80B780B2B1DD8DFE8DA
:1023500003F0070707071C061C1C1F211C2304236E
:102360004A78032A1AD0042A0FD100254A8844F259
:102370000A06B24246D013D844F20306B2423DD018
:1023800044F20506B2423BD0E2B36FF0150034E0F0
:102390000523E5E70623E3E70723E1E70125E5E772
:1023A00044F21406B2422FD044F22806B2422DD095
:1023B00044F20F06B242E8D10322C0F340101B02E0
:1023C00043EA005343EA053343EA0243220102F1A0
:1023D000804202F5E0420020C2F81835230103F1E3
:1023E000804303F5E0438A79C3F81425C3F8100548
:1023F000074B4A79234483F8902070BD0022DCE724
:102400000122DAE70222D8E70422D6E70522D4E740
:1024100000000020F7B50D464FF0FF3356484FF04F
:10242000FF3202F099FF6E68731EFE2B3CD800232A
:102430005248534F1A4626FA03F111F0010126D0F3
:1024400017F803C0BCF1000F2ED000EB031E6C7C0C
:10245000DEF81815003C18BF012421F0807141EA14
:102460000461CEF8181503F151010901013240F859
:1024700001C0D2B20133082BDDD12B7C083B062BE7
:1024800012D8DFE803F009111D1119111B0003F127
:10249000510424010151EDE700233849012AC1F814
:1024A000F0356B7C0ED97BB16FF01504324802F029
:1024B0002FFF204603B0F0BD0223EEE70323ECE735
:1024C0000123EAE7082BEFD8C1F8F4352968530057
:1024D00011B1898901FB0333E968994249D3274B3C
:1024E000A968C3F82C162F46C3F830260FCF254C09
:1024F00004F164060FC63B683360002626662B682D
:10250000274693B30FCB04F1780585E80F00656685
:10251000A4F8886048B3BFF35B8F57E8003F47E8F3
:102520000062002AF9D1BFF35B8F1749A56F174AE4
:102530004FF400400F463146E5FB0071002338465A
:10254000FDF7DEFD0022CDE90001002304F10800C3
:1025500003F03CFD0E484FF0FF324FF0FF3302F026
:10256000FBFE00B12066246EA0E70648FFF7D8FE08
:10257000F0E76FF00B0499E7400000200070004086
:1025800090000020000000203F420F0040420F005A
:102590005000002010B50E4B0024C3F80441D3F8BE
:1025A0000421C3F81041D3F810211222C3F80423E8
:1025B0000720FFF7BBFC224601210720FFF7E6FCBE
:1025C0000448836C13B9403002F0A2FE002010BD15
:1025D000007000400000002038B52E4BD3F80421D5
:1025E000002A49D00022C3F80421D3F804112A4C50
:1025F00001219960C3F80025636E2546BBB3E36FE4
:10260000B4F8882033B104F164019847012814D04C
:10261000022827D0B4F88830B4F884209A4221D90F
:102620000133A4F888301B4BD3F82C26D3F834168A
:1026300089B202EB4102C3F82C26A36F23B9BDE88F
:1026400038401548FFF76CBEBFF35B8F55E8003F7D
:102650005A1E45E800210029F8D1BFF35B8F012BFA
:10266000EDDC38BDA36F13B10C4805F0B0FF0C488A
:10267000BDE8384002F04CBED3F810110029F0D06C
:10268000C3F81021D3F8102101229A601A605A6011
:10269000E7E700BF007000400000002008000020B5
:1026A00050000020084B70B5C31A0D4607499B1017
:1026B000044659430648402204F094F92B4601464B
:1026C0002046BDE870401847F80F0020B76DDBB614
:1026D0006086000073B50C4C0C4A4023041B009329
:1026E0000D460B460A49A41061430646094804F00A
:1026F000A5F9011E05DA30462B4602B0BDE8704050
:10270000184702B070BD00BFF80F0020A76A000094
:10271000B76DDBB66086000010B54FF02003EFF315
:10272000118483F31288BFF36F8F074A136823F075
:102730000201DB07116002D4012005F0F5FC84F3EF
:102740001188BFF36F8F10BD48100020002270B5B4
:10275000012104461046FFF719FC114801F052FE12
:10276000104B984218D1206900F09CF901F05CFEF2
:1027700026690D49304603F05DFF00280BDB01257B
:1027800035642469084904F11C0003F053FF002854
:1027900001DBE564002070BD6FF00400FBE700BFC3
:1027A000E12700000000AD0B3C89000070B5014638
:1027B0000C2309484B43C418D4E90E564033002279
:1027C0001844A26304F0FBF82DB132462B460348AF
:1027D000BDE87040184770BDF80F0020608600000B
:1027E000012810B504460AD004280CD078B9084B4B
:1027F0001B6C5B070BD1BDE81040FFF7D7BF00F0A3
:102800005FF92046F7E7BDE8104000F067B910BD5A
:10281000F80F002008B54FF02003EFF3118183F388
:102820001288BFF36F8F124A136843F002001060E2
:10283000DA0708D481F31188BFF36F8F0120BDE858
:10284000084001F003BE4FF08043D3F80C24D3F8C6
:102850000C34DB07EED5074804F0B1F881F311889A
:10286000BFF36F8F0020BDE80840FFF79FBF00BF98
:1028700048100020381000201FB500220123CDE9A8
:102880000223094ACDF800D06B46CDF804D004F0FD
:1028900003F9002805DB4FF480420023684602F06C
:1028A0005BFD05B05DF804FBBF6A0000024AC3B2DD
:1028B0001C2003FB00207047F80F0020F8B52849C2
:1028C000BFF35B8F0646012251E8003F41E800203C
:1028D0000028F9D1BFF35B8F33B9224922484B60FE
:1028E000CB608A6003F0B9FE731E012B1DD805F082
:1028F000BFFC0446D0B91D4B1B78BBB14FF08043E1
:102900000222C3F8082305464FF08047D7F8182461
:10291000D7F81834D20313D59B0701D0012E0FD15D
:10292000C4B185F31188BFF36F8FF8BD4FF020035A
:10293000EFF3118583F31288BFF36F8F0124E3E770
:102940001CB12846FFF7B2FBE0E70021212003F08D
:102950003FF9DBE74FF080430222C3F80423E4E7AA
:10296000F40F0020E40F002014100020382A00206B
:102970000D4BBFF35B8F012253E8001F002903D1E9
:1029800043E800200028F7D1BFF35B8F0AD1074945
:102990000023CB60064B4B6003238B60054B18680C
:1029A00003F05BBE704700BF68100020501000208D
:1029B000792A00004C10002007B500220023CDE941
:1029C000002308484FF40042002303F0FFFA064BAF
:1029D000186803F09AFE054B00221A6003B05DF8F8
:1029E00004FB00BF580100204C100020681000209C
:1029F000F7B51C4E1C4CB7681C4DFB683A2130469D
:102A0000984740B1002323702B8001F071FD012312
:102A1000237003B0F0BD0C213B696A4630469847ED
:102A20000028EFD1124A019B93FBF2F3009A217820
:102A300003EB82031BB2B5F900200029E4D09A1AF7
:102A4000002AB8BF524212B2012ADDDC094A1368DB
:102A5000013901332170136003B0BDE8F040FFF786
:102A6000ABBF00BFC4860000372A0020341100200D
:102A700090D003006010002008B5074805F0E9FB7E
:102A800028B901F035FD054B01221A7008BDBDE8DB
:102A90000840034802F07EBDC4860000372A0020AB
:102AA000A8000020034B044A186000231360034A67
:102AB000136070474C10002064100020601000204C
:102AC000024B00221A70FFF753BF00BF372A0020C5
:102AD000014805F07CBD00BF58010020024A136880
:102AE00001331360FFF768BF64100020024B0B60D6
:102AF00001231360704700BF6C100020004870472E
:102B00009089000010B5012211460648064C05F0D8
:102B1000D5FB05F095FB206005F08EFB6060002082
:102B200010BD00BF741000206C10002070B50C4662
:102B3000154605F081FB29460646204603F0CCFFEA
:102B400008B3B4FBF6F306FB1343E3B9B5FBF6F3A6
:102B500006FB1353BBB9AE4201D9002070BD4FF044
:102B6000FF324FF0FF33094802F0F6FB05F064FB3B
:102B70000646204602F028F9AD1B3444F9D103483B
:102B800002F0C6FBE9E76FF01500E7E774100020DC
:102B9000F8B50E463046194617461C4603F09CFF12
:102BA00008B344EA060515F003051CD1A4B10F488B
:102BB0004FF0FF324FF0FF3302F0CEFB24F003045E
:102BC000A54206EB050009D1094AD2F80034DB071B
:102BD000FBD5064802F09CFB0020F8BD795902F0B5
:102BE00013F90435ECE76FF01500F6E774100020D8
:102BF00000E00140F0B54068057B01F01F0444EAA5
:102C00004514056987B0002D64D0B2F5001F00F1AE
:102C1000100506D12146284605F006FB002007B026
:102C2000F0BD01AE0027B2F5800F0197776039D172
:102C3000B3F1007F14BF052304238DF80430002373
:102C4000CDE904630393836823FA01F111F00101D4
:102C50001AD1B2F1A07F17D104F01F03620903F566
:102C6000E0732AD0012A3BD11F4A52F82330DB07F8
:102C70000AD40DF1030632462146284601F004FF2E
:102C80001A4B98421CD0029603AA2146284601F00E
:102C9000BDFD174B984220D101222146284601F064
:102CA0005BFFBBE7B3F1C06F05D0B3F1007F14BF8A
:102CB00001230223C1E70323BFE74FF0A042D4E77B
:102CC0003146284601F042FF094B9842DBD06FF0B5
:102CD0000B00A4E76FF08500A1E76FF015009EE7F9
:102CE00051F82330FFDE00BF000300500400AD0B9D
:102CF0000000AD0B38B545682B69B3B110352846D7
:102D000001F014FF044680B90146284601F0D6FEC2
:102D1000084B98420BD108492246284601F0AEFEE6
:102D2000224605210620FFF731F9002038BD6FF05B
:102D30000400FBE70000AD0B3D2D0000420970B51B
:102D4000034602D0012A17D070BD0D4E326951687A
:102D50000029F9D003F01F0301250C689D400029CC
:102D6000F2D08A682A4002D04B68304698472CB18E
:102D7000236821461C46F2E7024EE7E72346F8E7C0
:102D800088860000748600002DE9F043466840F212
:102D90000635D006337B87B002EA050554BFC2F37F
:102DA0004010032001F01F07B5F5837F144647EA62
:102DB00043178DF8030044D00FD8062D18D007D83C
:102DC000B5B1022D3FD06FF0150007B0BDE8F0831C
:102DD000B5F5807FF7D101250AE040F20222954245
:102DE00033D0B5F5407F32D0B5F5007FEBD1022569
:102DF00022032ED5726801238B40C2F80835326950
:102E000092BB07F01F037F092BD0012F79D13F4AD6
:102E100002EB830284F48033D2F80017C3F300433B
:102E2000C4F3404444EA430421F4E16144EA8004E9
:102E300021F0070144EA05230B43C2F800370020C4
:102E4000C3E70725D4E70425D2E70525D0E7032506
:102E5000CEE7630341BF012372688B40C2F80C3593
:102E6000CDE74FF0A042D3E710360DF1020239460C
:102E7000304601F009FE14F4403F80460CD139463B
:102E8000304605F0CFF9224B9845D8D19DF8021075
:102E9000304601F055FED2E701AB4FF0000903AA1E
:102EA00039463046CDE90439CDE90199CDF80C9089
:102EB00001F0ACFC164B984285D114F4003315D0C8
:102EC0009DF803308DF80E3084F48034C4F3004450
:102ED0004B4603AA394630468DF80C508DF80D400C
:102EE00001F04EFD0A4B9842CDD06CE7CDE904339A
:102EF00003AA0DF1030339463046039301F086FC23
:102F0000F0E703F5E07352F82330FFDE00030050D2
:102F10000000AD0B014B01221A60704700C0004059
:102F20000C2903690BD15B6A064907484B4393FBA5
:102F3000F0F100FB113311605360002070476FF017
:102F40008500704790D0030040420F00044B006999
:102F50000022C3F80021D3F8003102F0D9B900BF34
:102F600000C000407FB50569AB6A63B33A2901D060
:102F70000C292BD105F110064FF0FF324FF0FF3333
:102F8000304602F04BF9134B0193A86A0323002447
:102F900069460394029303F060FB4FF0FF324FF059
:102FA000FF33284602F0D8F9A86A03F0AEFB0A4BBB
:102FB000D3F808256A6201225A60304602F0F2F81E
:102FC000204604B070BD6FF00A00FAE76FF085008C
:102FD000F7E700BF152F000000C0004010B50469DE
:102FE0000020FFF763FCA0624FF0FF320021204673
:102FF00005F064F904F1100005F059F900220121EF
:103000000C20FEF7C3FF0C20FEF790FF024B0122BD
:10301000C3F80423002010BD00C0004070B5012398
:1030200083400E4ABFF35B8FDC4352E8001F01EA86
:10303000040542E80056002EF7D1BFF35B8F4FF432
:10304000803282400648C0F80823BFF35F8FBFF389
:103050006F8F0B4214BF0120002070BDCC100020E8
:103060000010014070B40E49D1E90034D01AC318E1
:1030700044F1000422F07F46C1E90034A6F50013B4
:10308000B3F5400F09D2074B1B681A0A1B069C199F
:10309000054B42F10005C3E9004570BC02F0A0BE3B
:1030A000A0010020D0100020A801002011B3BFF320
:1030B0005B8F0123104A834052E800CF4CEA030C97
:1030C00042E800C10029F7D1BFF35B8F0B4A4FF4F0
:1030D00080338340C2F80433094BBFF35B8F1B6816
:1030E000BFF35B8FC340DB0742BF064B4FF4003298
:1030F000C3F80021704700BFCC1000200010014031
:10310000C810002000E100E00D4B1868010A00061D
:10311000BFF35F8F0B4BD3F80435181841F1000152
:10312000B3F5801F0AD2084BD3E90023904271EB1C
:10313000030303D210F1807041F10001704700BF1A
:10314000D010002000100140A80100202DE9F04F10
:1031500085B016461F469DF840A00446FFF75EFF67
:103160000190FFF7D1FFB04271EB070354D23E4B01
:10317000301A67EB0101984271F100014FD23B4BCD
:1031800003EB0413D3E902239F4208BF96425ED0AB
:1031900037494FF4803804F1500508FA04F8AD00BF
:1031A000C1F848832046ADB203F071FD26F07F4B95
:1031B00005F1804504F5A87305F58835DC464FF028
:1031C00003090293029A2CF07F4341F82230C1F8A0
:1031D0004483D1F80435274A6FF00200C01A6044D6
:1031E00020F07F40904232D9286868B1D1F8043588
:1031F0000393A3EB0B0020F07F40B0F5000F26D91E
:10320000204603F044FD039BBAF1000F07D109EB00
:10321000030C09F10109D5E7BAF1000F09D06FF0ED
:10322000150520460199FFF741FF284605B0BDE886
:10323000F08F0123104ABFF35B8FA34052E8000FC9
:10324000184342E800010029F8D1BFF35B8F07491A
:103250000E98230101EB0412C8500F9B5360C2E982
:1032600002670025DDE700BF01008000900100201B
:1032700000100140FDFF7F00C81000207FB51C4CEE
:103280001C4BC4F80833C4F848331B4B00254FF0DF
:10329000FF304FF0FF31C4F80855C3E902014FF485
:1032A0008033C4F80433154B02264FF40032012159
:1032B000C4F804631120C3F880212A46FEF766FE95
:1032C0001120FEF733FE0E4A0123A3602360136032
:1032D0000C4B0D4A0093CDE9015500232846FFF71A
:1032E00035FF3046FFF7EAFA284604B070BD00BF4C
:1032F0000010014003000F009001002000E100E0F9
:10330000CC10002065300000FFFF7F002DE9F7435F
:103310002F4CD4F8043399070BD5D4F8043143B1BA
:103320002C4A0023C4F80431D4F804311368013363
:103330001360D4F80433DA032AD5BFF35B8F264B2E
:1033400053E8002F22F0010143E800100028F7D1D4
:10335000BFF35B8FD30702D4D4F84031C3B100254B
:10336000C4F84051D4F84031FFF7CEFE4FF02003AF
:10337000EFF3118283F31288BFF36F8F174BD3E9FA
:103380000267B042B94106D282F31188BFF36F8F52
:1033900003B0BDE8F0834FF0FF384FF0FF39C3E9C9
:1033A0000289D3E900101D604FF48033C4F848331C
:1033B000C4F84051D4F8403182F31188BFF36F8FC5
:1033C0000029E5D0009032463B4628468847DFE793
:1033D00000100140D0100020C810002090010020F3
:1033E00030B5431C124C85B005D08442A8BF0446BA
:1033F000012CB8BF0124FFF787FE0E4B0C4DD3E91B
:103400000013401AB0F5000F10D22218AA4228BFAC
:103410002A4652184FF0000007490091CDE90100FB
:1034200043F10003FFF792FE05B030BD2A46F0E7F6
:10343000FFFF7F00A00100206530000008B5FFF706
:1034400063FE024B1B68C01A08BD00BFA00100202C
:1034500010B5084C012363601120FEF775FD064B83
:10346000C4F80833C4F84833044B4FF40032C3F8AF
:10347000802110BD0010014003000F0000E100E0BA
:1034800030B50C490C4D0B680246002405EB0310C7
:10349000D0F80808C0B218B904B10B60002007E0EA
:1034A0000133072B4FF00104F0D90B606FF01B00C4
:1034B000136030BDD410002000E0014030B58168B9
:1034C00085B0103921F00704054603F0B5F9102244
:1034D0000146684603F04AFA07491022684603F09D
:1034E0003AFA10236A462146284603F075F9003857
:1034F00018BF012005B030BD288B000030B50D4647
:10350000816887B0102302AA1039044603F04FF9EE
:10351000002802DA012007B030BD102202A920469F
:1035200003F01BFC00283AD11E49102202A803F028
:1035300002FA00280CBF012302232B70204603F05F
:10354000F8FB012301460DF10702204603F02FF995
:103550000028DFDB9DF8073003F00F021B096A70BB
:103560002B7101220DF10701204603F0F6FB10B983
:103570006B78042B03D901236B7000232B71A26895
:10358000183A22F00702083AA91C204603F0F8FB7B
:103590000028BFD1E91C204603F04BFCBBE7032306
:1035A000CBE700BF288B00007FB5264D440069465D
:1035B00055F8240003F043FC002835D1013402A95A
:1035C00055F8240003F03BFC01282BD103238DF890
:1035D00008308DF80B309DF800509DF808601A4AAD
:1035E00000241078294603F0AAFB18B3507831461E
:1035F00003F0A5FBF0B19378042B03D09DF80310E2
:10360000994217D1D378042B03D09DF80B1099421F
:1036100010D11379042B09D15079831E022B03D8C2
:1036200004B070BD0028D6D0FF20F9E79DF8021045
:103630009942F1D00134032C02F10602D1D10120CC
:10364000EEE700BF088A000025900000044B1B68CD
:10365000584043085B4240421843C017704700BFC0
:10366000D81000208842F0B504D0094F0438002556
:10367000AA4200D1F0BD3E6850F8044F5E4024EAF3
:10368000060451F825601E40344304600135EFE71D
:10369000D8100020044B1B68584043085B4240424E
:1036A0001843C017704700BFD8100020F8B50E4669
:1036B000C9880546144603F0B1FE0746D0B9204636
:1036C000FFF7E8FF104B1A68B5F90430424023EACF
:1036D0000203B6F9042002401343AB8004460346BC
:1036E000F28831682868FFF7BDFFF388E443EA8871
:1036F000934201D33846F8BD296851F8232022406F
:1037000041F823200133F2E7D81000202DE9F047DB
:10371000DFF83CA007468846164699460024DAF8AA
:103720000050DAF800305D4085EA090585EA0400BA
:10373000FFF7B0FFC243D2B208EBC4013846FFF72F
:10374000B5FF10B90134A642E9D1BDE8F08700BF4A
:10375000D81000202DE9F04F99B083460F46184647
:1037600000211646039303F0BCFF002800F0898176
:10377000784B14930024012515AB0399139330461D
:10378000CDE90B45CDE90D45CDE90F45CDE9114515
:1037900003F030FFA04228DABBF1000F05D1E7B9F2
:1037A0000024204619B0BDE8F08F2146584603F0AA
:1037B000A9FE04460028F2D00BA803F021FE0DA8B4
:1037C00003F01EFE0FA803F01BFE11A803F018FE65
:1037D0000C2115A800F02CFBE3E73146384603F036
:1037E0005CFE04460028E7D1DAE731460BA803F077
:1037F00054FE04460028DFD103990DA803F04DFEC6
:1038000004460028D8D1F188ADF8385002310FA80D
:10381000ADF8305003F002FE04460028CCD101463A
:103820000FA803F06FFE04460028C5D1F18811A847
:10383000023103F0F3FD04460028BDD10DA803F0CA
:103840008DFE00F01F001F2873D0C0F11F03194622
:103850000BA8019303F0A8FE04460028ACD10199FF
:103860000DA803F0A1FE04460028A5D1BDF83250F2
:10387000BDF83A80A5EB080A4FEA4A1949460DA857
:1038800003F092FE0446002896D14FEA8A0A0DA959
:103890000BA803F0DEFE00284DDA49460DA803F020
:1038A000A0FE0446002887D108F1FF3305939B0052
:1038B00005F1FF3A069305F1804508F18043023B8C
:1038C000013D9B00A5EB08050893AB000293059B07
:1038D0009A4541D8BBF1000F0DD00FA9584603F00F
:1038E000DCFD002840F0C980039AB388928813FB5E
:1038F00002F3ABF80430002F3FF45EAF01990BA840
:1039000003F06FFE002840F0B880B388ADF8303087
:103910000BA9384603F0C1FD0146002840F0AF80F6
:10392000384603F0DEFE00287FF446AF0123BB805B
:1039300042E701949AE70F9A52F80A300BA9013333
:1039400042F80A3008460DAA03F0B1FF04460028E9
:103950009DD031E7010003000D9B069A04931344A8
:10396000DDF82C900793049B59F82A109A580F9D64
:103970004FEA8A08A8F104030993029B91421D446F
:1039800076D2A8F10400002359F80000FCF7B8FB38
:10399000002914BF4FF0FF330346BAF1010F2B602B
:1039A00016BF09EB0803002353F8083C1593A8F150
:1039B000040359F80330169359F8083017932B680D
:1039C000DDF8108001332B60089B98442B68013B85
:1039D0002B60002111A803F095FD00284DD1059B17
:1039E000002B48D0D8F80020119B1A60079A126863
:1039F0005A6011A92A68084603F05DFF00283CD1EF
:103A000013A911A803F025FE0028DFDC2A680DA900
:103A100011A803F050FF80BB029B4FEAC308414648
:103A200011A803F0C1FD40BB0BA9084611AA03F081
:103A30003EFF014618BB0BA803F053FE002812DA24
:103A40000DA911A803F029FDB8B9414611A803F04A
:103A5000ABFD90B90BA911AA084603F025FF60B988
:103A60002B68013B2B60029B0AF1FF3A043B2DE7D8
:103A70004FF0FF3391E7059AB6E704469CE60C4603
:103A80009AE66FF00B048CE62DE9F84F9246194A3E
:103A90001568454006460F46ED43002B14BF994676
:103AA000894600240A9B04F10408434504D20A9B7A
:103AB0009C4214D3BDE8F88F0AEB040004F05EF9D1
:103AC00000EA060B09EB040004F058F900EA0501CE
:103AD00041EA0B01381904F05CF94446E2E71AF8B0
:103AE000043019F8042033402A4013433B55013475
:103AF000DDE700BFD8100020082804D009280348BB
:103B000018BF002070470248704700BF3790000080
:103B10003A90000001680E4A9142034615D1C169EE
:103B2000A2F11022A2F1EF1291420ED18268012A75
:103B30000BD8C26812B101698A4206D0586928B10F
:103B40009B691B1A5842584170470120704700BFBB
:103B500055AA00FF70B50D4B9E68A6B13046FFF721
:103B6000D9FF044678B9F3686BB935690DB92046B9
:103B700070BD2846FFF7CEFF28B9EB68B34202D1EB
:103B80002E462D69F2E70124F1E700BFDC1000208A
:103B90002DE9F8433F4F3C68D4B1BC68C4B100285C
:103BA0004AD0002948D001FB00F5B5FBF0F088426F
:103BB00042D1281D40D8A9070DD025F003060436B0
:103BC000FC6803E06368B34238D2A469002CF9D1E1
:103BD0002046BDE8F8832E46F2E7FB6041E006F19F
:103BE00020016318203A5A600022C3E902242A48BF
:103BF00022691A6160502949D96102B1D3606269B2
:103C00005A61A1699961AAB193619A6902B153613C
:103C10004FF00109C4E9016923610023C4E90533B8
:103C20003B69DB072ED5FFF795FF58B31C4B484681
:103C30001B6826E0FB60E8E70024C9E7A3681BB126
:103C4000174B01201B6898476268921B232A04F1D6
:103C50002008C4D80123A360D4E90523002ABCD0DE
:103C60009361A3690BB162695A610023C4E905330A
:103C70003B69DA0706D5FFF76DFF18B1084B1B68E3
:103C8000012098472A4600214046444602F06EFE35
:103C90009EE700BFDC10002055AA00FF669911EED8
:103CA000BC00002070B50546002800F08880444E16
:103CB0003368002B00F08380B268002A7FD08342F3
:103CC00003D872681344984203D33E4B01201B680B
:103CD0009847A5F120042046FFF71CFF18B1394B87
:103CE00001201B68984755F8183C012B03D0354B31
:103CF00001201B689847002345F8183C55F8143CF0
:103D00003BB39A682ABB55F81C2C02F120015A6873
:103D10000A445A6055E905321A6155F8145C2B695A
:103D200003B1DD6020220021204602F01FFE286939
:103D300010B18368002B2ED033699B073FD5FFF766
:103D400009FF00283BD01F4BBDE870401B680120D5
:103D5000184755F8100C00282AD0836843BB4268E6
:103D6000636813442033636003692361D4E9052346
:103D70009AB9CBB9436963618269A261B3B19C61AD
:103D8000A36903B15C61236903B1DC6020220021D7
:103D900002F0ECFDD0E72C46E1E79361A369002B2C
:103DA000E8D062695A61E5E7F360F7E7F460E7E7B6
:103DB000F36845F8083C03B15C61F460BCE770BD92
:103DC000DC100020BC00002038B514220C4605464B
:103DD0000021134802F0CAFD1249134800F040F8D0
:103DE000232C1CD915F003031FBF043CE418C3F1B6
:103DF0000403ED1822460021284602F0B7FD084BC7
:103E00000A499D60C3E90054203C6C609A681160C7
:103E10009A68DA60A1F11021A1F1EF11D16138BDEA
:103E2000DC100020A53C0000913B000055AA00FFDB
:103E300010B50A46044619B1024B00211B68984789
:103E400010BD00BFB8000020014B1B68184700BF21
:103E5000C4000020014B1B68184700BFC0000020B1
:103E6000024B1860024B002019607047C40000200C
:103E7000C0000020F8B500F1080647680446304647
:103E80000D4603F06FFB87424BD16368B3F5807F2B
:103E900047D80021304603F024FC002841DD0021F2
:103EA000304603F04BFBE0B345B9294604F110005E
:103EB00003F017FC002834DD0020F8BD04F12005D4
:103EC0000021284603F00DFC00282ADD00212846A9
:103ED00003F034FB28B304F128050021284603F041
:103EE00000FC00281DDD0021284603F027FBC0B19F
:103EF000002104F1100003F0F4FB002811DD002183
:103F000004F1300003F0EDFB00280ADD002104F18C
:103F1000380003F0E6FB002803DD002104F1400037
:103F2000C6E70148C9E700BF80BFFFFF012938B5D8
:103F30000546144601D0074838BD22B90123C5E91A
:103F40001C340020F8E71046FFF7D6FD0028F5D115
:103F5000F1E700BF00BFFFFF70B500210446FFF787
:103F600089FF054610B10E4D284670BD04F10806C4
:103F7000304603F0F3FA7F28F5D91034294620465D
:103F800003F0DCFA0028EED0204603F0E7FA01281F
:103F9000E9D93146204603F05CFB0028E4DBE2E788
:103FA00000BEFFFFF0B50C4685B000210546164661
:103FB000FFF760FF002839D102A803F01CFA214660
:103FC0006A6802A803F0D4FA044618B102A803F004
:103FD00017FA0CE005F10804214602A803F039FBAA
:103FE000002807DB02A803F00BFA6FF00304A4F526
:103FF000854418E005F1480302A96F68009305F1B4
:1040000010022346084603F0B9FC04460028DDD11F
:104010003A46314602A803F0C1FA044602A803F06A
:10402000EFF9002CE3D1204605B0F0BD004CFAE7D3
:1040300080BFFFFF01292DE9F041034641D8224A04
:10404000224F2348234E244D244C9966002918BF43
:104050009046234A18BF964602F1794202F574024F
:1040600002F5016218BF94461E4A18BF17461E4A41
:1040700018BF164602F1D14208BF804602F5C012B1
:104080001A4802F51E620CBF864615461848194AA2
:104090000CBF844614461848A2F11162A2F50C2206
:1040A000A2F28E2218BF02460020C3E91000C3E925
:1040B000128EC3E914C7C3E91665C3E91842BDE807
:1040C000F0816FF07300FAE7D89E05C13AF54FA56D
:1040D00067E6096A7F520E518C68059BABD9831F36
:1040E00007D57C3639590EF7310BC0FF85AE67BB5B
:1040F00072F36E3CA78FF964A44FFABE2DE9F04F1E
:10410000CDB000F1640300F144070DF5867900930A
:1041100001914A463B4653F8041F42F8041F009998
:104120009942F8D102ADDFF800A14FF000082C460B
:10413000B8F10F0F61D8019B03EB880003F01EFE5E
:1041400003F0C7FE0146A960D4E94763D4F818011B
:104150005AF804CB73404FEAF022D4F8206182EA87
:10416000B012034082EA706273401344D4F82421F1
:10417000D4F81061134463440B44D4E9421E4FEA5F
:10418000713C41EA0E0232408CEAB10C01EA0E0B9E
:1041900042EA0B028CEAB15C9444D4F81421D4F8BE
:1041A0002061C4F824611A44D4F81C61C4F81821B1
:1041B00008F10108D4F81021C4F804C06344B8F130
:1041C000400FC4E94706C4E944E2C4E94231236030
:1041D00005F10405ACD157F8043F59F8042F1344F6
:1041E0003B60009BBB42F6D102A84FF49471FFF7ED
:1041F0001FFE00204DB0BDE8F08F2B6855F8382C1D
:1042000055F8340C4FEAF34181EA734181EA932176
:1042100055F8143C134419444FEAB04383EAF013B1
:1042200083EAD00319448EE7108A0000024AD2F8CC
:104230000034002BFBD0704700E0014008B54FF080
:104240008053D3F830210D2A55D14FF08041002200
:10425000C1F80C21C1F81021C1F83825434AD3F820
:104260000404C2F82005D3F80804C2F82405D3F8E2
:104270000C04C2F82805D3F81004C2F82C05D3F8B2
:104280001404C2F83005D3F81804C2F83405D3F882
:104290001C04C2F84005D3F82004C2F84405D3F842
:1042A0002404C2F84805D3F82804C2F84C05D3F812
:1042B0002C04C2F85005D3F83004C2F85405D3F8E2
:1042C0003404C2F86005D3F83804C2F86405D3F8A2
:1042D0003C04C2F86805D3F84004C2F86C05D3F872
:1042E0004434C2F87035D1F80034DA0709D56FF0DC
:1042F0000103C1F800344FF08053D3F830310D2B57
:104300000CD14FF08053D3F834313BB14FF0102330
:10431000D3F808224FF08043C3F858254FF01021FE
:10432000D1F80C32DB071FD511480123C0F8043542
:10433000FFF77CFFD1F80C3223F00103C1F80C32F7
:10434000FFF774FF0023C0F80435FFF76FFFBFF3DA
:104350004F8F0849084BCA6802F4E0621343CB60F0
:10436000BFF34F8F00BFFDE708BD00BF00C0004096
:1043700000E0014000ED00E00400FA0530B50468FB
:10438000CCB1BFF35B8FB4FA84F3C3F11F03DBB28C
:1043900001229A4024EA020250E8005FA54204D1BB
:1043A00040E8002CBCF1000FF6D1BFF35B8FE6D1E3
:1043B00002480B7030BD0248FCE700BF0000AD0BA7
:1043C0000200AD0B10B50368CB40DB0714D401230A
:1043D0008B400268BFF35B8F43EA020150E8004F55
:1043E000944204D140E8001CBCF1000FF6D1BFF3A9
:1043F0005B8FEED1014810BD0148FCE70000AD0B1A
:104400000400AD0B054B1A792AB95A7101221860C4
:104410001A71034870470348704700BFF01000202E
:104420000000AD0B0C00AD0B08B5074B1B682BB1A2
:104430000020FDF79DFD08B9FDF778FD4FF08043A2
:104440000022C3F8182508BDF010002010B510B1E7
:10445000012840D010BD4FF08043D3F81814D3F892
:104460001824CC031ED5900702D0002003F002FED2
:104470004FF080430022C3F81825022008224FF491
:10448000827303F180430021196002F180421C68AD
:1044900001241460154A12680AB34FF08043C3F830
:1044A0000403D7E7D3F81424D107E1D5D3F81C24AB
:1044B0009207DAD10D4A12681AB10222C3F8042316
:1044C000C8E7D3F80421002AFBD00022C3F8042156
:1044D000D3F80431BEE700224FF48073D1E71A68A5
:1044E000002AFCD019601B68B4E700BFF010002060
:1044F0004FF08043D3F80C14D3F80C24C80322D512
:10450000D10720D5D3F81824D2031CD5104A5179ED
:1045100001F0FF00C9B9C3F80C01D3F80C11012157
:1045200051711961126822B10822C3F804230948A5
:104530007047D3F80C21002AFBD00022C3F80C21CD
:10454000D3F80C31F3E7044870470448704700BFC4
:10455000F01000200000AD0B0500AD0B0B00AD0B03
:1045600010B54FF08043D3F8002152B10020C3F8BA
:104570000001D3F800210122C3F80823164B1B6861
:1045800098474FF08043D3F804215AB10022C3F872
:104590000421D3F804210222C3F808230E4B012082
:1045A0001B6898474FF08043D3F80C2192B1D3F8A1
:1045B000042312070ED50022C3F80C21D3F80C11E6
:1045C0000821C3F80813044B5A71BDE810401B685A
:1045D0000420184710BD00BFF0100020036803F04E
:1045E0001F025B09026004D0012B034818BF0020A2
:1045F00070474FF0A040704700030050034A430942
:1046000000F01F00D35C1844C0B270473D9000001A
:1046100070B50546FFF7F2FF0C4C08300E4634F833
:104620001030DA0508D5C3F3432304EBC302284650
:1046300054F8333052689847A3682BB1E26831468A
:104640002846BDE87040184770BD00BFC800002074
:1046500008B5FFF7D3FF034B083033F81000400BC9
:1046600008BD00BFC800002008B5FFF7C7FF034B17
:10467000083033F81000C0F3400008BDC800002027
:1046800008B5FFF7BBFF034B083033F81000C0F349
:10469000401008BDC8000020034611F0010010B50D
:1046A000CCB20DD1A207C4F3400012D5094AD2F80A
:1046B00020055860C2F82005003818BF012008E026
:1046C0004FF0A041D1F820251A60C1F82025002A1A
:1046D000E8D010BD0003005010B5FFF78FFF124A5D
:1046E000083032F81030D9051CD5C3F3432123F428
:1046F000F85322F8103002F10E04002034F8023F83
:1047000013F4807F03D0C3F3432399420AD00130CE
:104710002A28F3D1002342F831300448BDE8104084
:10472000FFF750BE10BD00BFC800002034010020BC
:10473000F0B5054600200446012607468C420BD101
:10474000114BD3F87C2132B10022C3F87C21D3F87D
:104750007C3140F00040F0BDE3B29B0003F5807275
:104760009B0806FA03F31D420BD002F1804202F5CA
:10477000C042D2F800C0BCF1000F02D0176012682E
:1047800018430134DAE700BF00600040F7B5064681
:104790000846FFF733FF194F00F108050C4637F8BC
:1047A0001530DB0727D5304603F018FD2046FFF70C
:1047B00067FF40B12046FFF74BFF316800F5A2705C
:1047C000002341F820302046FFF786FF002301A890
:1047D00027F815300194FFF701FF019B00EB8300E0
:1047E000074BD0F80027134043F00203C0F800370E
:1047F000044803B0F0BD0448FBE700BFC800002038
:10480000F0F8FCFF0000AD0B0400AD0B2DE9FF41FB
:10481000164680460846FFF7F1FE0D46316804460D
:1048200009B32846FFF720FF18B12846FFF728FFF5
:1048300010BB0023CDE900338DF80E308DF80F301A
:104840000DF10F020B4628460DF10E0103F06EFC30
:10485000474A04F1080132F8113023F0020343F013
:10486000010322F81130736863B328461F78596832
:10487000FFF7FAFE10B1D1B13E4826E03C4A04F100
:10488000080032F8103023F02003DB04DB0C22F8A0
:10489000103061B1032FEFD87168496891F800C0FA
:1048A000D8F80010A7B90CF5A27C41F82C70304A5A
:1048B00004F1080132F8113023F01C0343EA8703A6
:1048C00022F81130B3684BBB2B4804B0BDE8F0812F
:1048D00001EB8C0143EA4C33D1F810E52EF0030EC6
:1048E000C1F810E5D8F8001001EB8C0E43F020035E
:1048F000DEF8101522F8103021F44F3121F4407108
:10490000CEF810152902DEF8108501F47C5141EA39
:10491000074141EA0801CEF81015C8E7D3E900675E
:104920002846FFF7D9FE002ECED0114DD5E9002341
:10493000964203D19F4201D1002209E00F480DF1B8
:104940000F01FFF71BFD0C4B9842BED19DF80F20C5
:1049500045F8326005EBC20308345F6035F8143067
:1049600043EA422343F4807325F81430ACE700BFD8
:10497000C80000200400AD0B0000AD0B3401002086
:104980002DE9F0430C4685B08046204611461E4670
:10499000FFF734FE054629B32046FFF765FE18B938
:1049A0002046FFF76DFE18BB314F05F1080937F8B7
:1049B000193013F01C0F02D04B78012B18D00123B3
:1049C0008DF80F300023CDE900134A1C8B1C2046C4
:1049D0000DF10F0103F0AAFB37F8193043F0030380
:1049E00027F81930002E41D02046FFF73DFE18B9B8
:1049F000204805B0BDE8F08396F800C0D8F8003034
:104A00001B4F0CF5A272002143F8221005F1080299
:104A100037F8121021F02001C904C90C27F8121030
:104A200075781DB3D8F80000B67800EB8C002D0423
:104A3000D0F8103523F4991323F4F853C0F8103547
:104A4000230203F47C5305F440353605D0F810E515
:104A50002B4306F4801641EA4C31334341F02001E8
:104A600043EA0E0327F81210C0F810350248C0E7D9
:104A7000C80000200400AD0B0000AD0B014BC3E9E2
:104A800002127047C800002010B508461446FFF710
:104A9000F7FD50B10846FFF7B1FD054B083033F87C
:104AA000103004485B0B237010BD0348FCE700BFC7
:104AB000C80000200000AD0B0400AD0B70B5184E0F
:104AC00096F8744005464CBB2146542206F110006E
:104AD00001F04CFF2D68706E2146884212D10023F0
:104AE000C5F87C3145F30730D5F87C31FDF71EFA67
:104AF0004FF00043C5F804330A48012386F87430A8
:104B0000F36670BDCBB29B0003F580727C2B08BFAF
:104B1000AC5001F1010108BFAB58DEE70248F0E7F5
:104B2000C80000200000AD0B0C00AD0B034B93F848
:104B30007400003818BF0120704700BFC800002073
:104B40000148FFF73FBC00BF300100200148FFF7DC
:104B500015BC00BF3001002073B5054608460C4661
:104B60001646FFF78DFD00B30846FFF77DFD0146B1
:104B7000D8B92046FFF76CFD04B2A40004F580729A
:104B8000034628688150296882582144D1F81025AD
:104B900042F00102C1F810252EB12968012202FA63
:104BA00003F3C1F8043302B070BD2046FFF726FDC1
:104BB0000F4B083033F81030C3F38203042B12D0AC
:104BC000052B12D001A80194FFF708FD019AD0F837
:104BD0001035D34003F00103991C204602B0BDE814
:104BE000704003F0ECBA0321F7E70221F5E700BFBC
:104BF000C80000202DE9F04F694BDFF8A881D3F8F9
:104C00000403D8F86410C0B289B040F00040FFF748
:104C10008FFD051E2FDAC24600235AF8701F06A822
:104C2000CDE90633FFF738FD5F4B01930DF118090D
:104C30004FF0000B019A12F8013B0192DA0803F0E1
:104C400007031AF8022022FA03F3DA071CD409F149
:104C50000409BBF1000F14D0D8F864104FF00040E5
:104C6000FFF766FDD8F8701006A8FFF715FD0028BD
:104C7000DAD125F000450124002D79D109B0BDE835
:104C8000F08F4FF0010BD5E7484B5B440293D9F806
:104C900000100029DBD0029B91FAA1F11C78B1FA37
:104CA00081F141EA44142046FFF7A8FC083005943E
:104CB00038F81070C808BB0819F80020039301F0F9
:104CC0000701012303FA01F122EA010209F8002099
:104CD00005A8FFF783FC059A039B02F5E072C7F372
:104CE000820650F822205B073746C2F3014224D5E2
:104CF00020463946D6B2FFF78BFC05A80594FFF78E
:104D00006DFC059B03F5E07350F82330C3F30143BA
:104D10009E4207D10021204603F051FA3146204639
:104D200003F04DFA05A80594FFF758FC059B0122F6
:104D300002FA03F3C0F82035A9E7022A0CD10321B7
:104D4000204603F03CFA06F00503012BEAD1394670
:104D50002046FFF75DFCE5E702212046039203F0C1
:104D60002EFA032EF3D0039A032ADBD1022EEDE7AD
:104D700095FAA5F3B3FA83F304FA03F29B0003F167
:104D8000804303F5C04325EA0205D3F81005D3F8A4
:104D90001015C0F30520C1F30141FFF739FC6BE7A3
:104DA00000600040C80000204D9000004D900000C1
:104DB000044AD2F80034DB07FBD50160BFF35F8FF4
:104DC000704700BF00E001404FF080531A69B0FB0C
:104DD000F2F302FB130373B9084B0222C3F8042554
:104DE000C3F80805D3F80024D207FBD500220448F5
:104DF000C3F8042570470348704700BF00E0014036
:104E00000000AD0B0A00AD0B10B5054C0123C4F832
:104E10000435FFF7CDFF0023C4F8043510BD00BFF3
:104E200000E0014038B54FF02003EFF3118583F324
:104E30001288BFF36F8F064B9C6801F076FF85F3F5
:104E40001188BFF36F8F2046BDE83840FDF706B8E4
:104E5000FC100020104B70B553F82040013053F87F
:104E60002060A64200D870BDD4E9003595B153B199
:104E70002846984738B10028B8BF4042EB68FF2861
:104E8000A8BFFF201870EA68537843F001035370FD
:104E90000834E6E79847FBE7108B000008B50A4B9B
:104EA000012203201A70FFF7D5FF01F0C9F8042092
:104EB000FFF7D0FF00F02AF9FBF78CFA034A137BC7
:104EC00023F00103137308BD382A002030020020AC
:104ED00008B50348034A0021121A03F0C5F908BDBA
:104EE000900100203C2A002070B5002386B00122EA
:104EF000CDE90423194E1A4D01930F22CDE9023258
:104F00001849142303FB005506EBC01604464FF462
:104F1000C070154B00954FF4A07200FB0411304691
:104F200000F096F8737B114AEE6023F0040373736C
:104F30004FF4046304FB033313446B600C4B2C7479
:104F4000BFF35B8F53E8001F013143E80012002AD2
:104F5000F8D1BFF35B8F06B070BD00BFB001002079
:104F6000FC1000208032002087820000402A0020B0
:104F7000F810002080B50020A6B0FFF76BFF2D4B86
:104F800083F308882C4D2D4E6B692D4F43F400732D
:104F90006B610024E02385F82230EC772C766C7668
:104FA000AC7685F820406B6A43F4E0236B6285F8A9
:104FB0002340FCF7C1FEFDF765F84FF0FF33AB620D
:104FC000EB62FDF707F9FDF79DF840F20113ADF82C
:104FD000243006ABB360CDE91F44229403F038F9C6
:104FE0000120FFF737FF0220164DFFF733FF00F0D7
:104FF00065FD154B75610593012314490094CDE9B6
:1050000003434FF420523B46CDE90144284600F0CB
:105010001FF86A7B064622F0040228466A7303F0F2
:10502000CAF92046FFF760FF3A4631462846FDF7A9
:1050300013F800BF8032002000ED00E0FC100020DB
:105040009D4E0000300200204F90000000340020F0
:105050002DE9FF410E9E0673042646730D9E86734E
:1050600000F158050F46D61DC0E916550C9A0025CB
:1050700026F007064037C0E90655C0E91976856075
:10508000C573C56606F1400802920B9A01928844E6
:105090000A9A009242460446FCF7ACFF044B656551
:1050A0009B6803B11B6F2367404604B0BDE8F081E5
:1050B000FC100020F0B587B000250595109D0495E3
:1050C0000F9D03950E9D0295DDE912760D9D0195CC
:1050D0000C9D00950446FFF7BBFFB6F1FF3F08BFEC
:1050E000B7F1FF3F05D056EA070305D1204600F08F
:1050F00097FC204607B0F0BD03493A46334604F119
:10510000180000F0F7FDF4E77584000070B5224C3C
:10511000224D86B02646AE4204F130040AD300F098
:105120009DFC1D4C1E4EAC4220D306B0BDE8704025
:1051300000F0A8BC54F80C3C059354F8103C0493C0
:1051400054F8143C039354F8183C029354F81C3C54
:10515000019354F8203C009354E90A2354E90C01CC
:10516000FFF776FF54F8303C5E65D3E7D4E90A23B5
:10517000B3F1FF3F08BFB2F1FF3F05D052EA030190
:10518000206803D100F04CFC3034CCE731461830B5
:1051900000F0B0FDF8E700BF588800005888000014
:1051A0007584000038B5836804466BB3194A926869
:1051B00093422CD1C368012B03D9013BC36000206B
:1051C00038BD4FF02003EFF3118583F31288BFF34E
:1051D0006F8F0169806803F062F8204603F065F97B
:1051E000A06058B190F90E2022610022826703F07E
:1051F000E2F80948294600F001FCE0E7E06085F3A9
:105200001188BFF36F8FDAE76FF01500D8E74FF022
:10521000FF30D5E7FC100020392A00202DE9F341AA
:10522000044617461E464FF02003EFF3118883F320
:105230001288BFF36F8FC368334A7BB1806891686F
:10524000884219D057EA060318D188F31188BFF3B2
:105250006F8F6FF00F0002B0BDE8F081916891F997
:105260000E1021610133E3609368A36088F3118815
:10527000BFF36F8F0020EEE72169F2E791F90E107E
:1052800090F90E309942A8BF19466FF07E02914204
:10529000B8BF11468B422EDD03F001F80546CDE97B
:1052A00000761A482246414600F044FB0028E1D02F
:1052B0004FF02003EFF3118683F31288BFF36F8F53
:1052C000A068D0B1236821699C420AD04BB193F900
:1052D0000E309942A8BF19466FF07E039942B8BFBD
:1052E000194602F0DCFF40B10848314600F086FB69
:1052F0006FF00A00AFE70025D1E7002DF4D186F367
:105300001188BFF36F8FF3E7FC100020392A0020CB
:1053100038B504464FF02003EFF3118583F312886C
:10532000BFF36F8F03F0C1F848B10022826703F02A
:1053300042F829460748BDE8384000F05FBBD4E991
:1053400002329A4218BF0133A36085F31188BFF37C
:105350006F8F38BD392A002013B54FF02004EFF3CA
:10536000118184F31288BFF36F8F846844B1013CCC
:10537000846081F31188BFF36F8F002002B010BDED
:1053800052EA030406D181F31188BFF36F8F6FF0E7
:105390000F00F3E7CDE900230246024800F0CAFA05
:1053A000ECE700BF392A00202DE9F04F4A4E85B0C6
:1053B00004464FF0FF384FF0FF394FF02003EFF372
:1053C000118783F31288BFF36F8FD4F880508DB9A3
:1053D000022104F1980002F07DFF002843D1002350
:1053E000CDE90089029304F1880239463B4800F078
:1053F0000FFCE2E7D4F884202B68C4F88030954293
:1054000008BFC4F88430D4F8983043F00203C4F8DD
:105410009830EB6823F0040343F00103EB606B6802
:1054200087F31188BFF36F8F284698474FF020030A
:10543000EFF3118B83F31288BFF36F8FEB6899073B
:1054400023F0010219D4EA60D4F8983023F0020363
:10545000C4F898308BF31188BFF36F8FDB05ACD4A1
:1054600000F034FBA9E704F1900500220121284651
:1054700003F06EF80028F8D1B1E7306823F0030399
:10548000EB600028E0D00027D0F800A03B460028C1
:10549000DAD04268954201460CD101689FB9726822
:1054A0003160824200D1716040F8083BFFF730FF65
:1054B00039460023BAF1000F0BD0DAF8002050462D
:1054C0000F469246E3E739607268824208BF776010
:1054D000EAE75246F3E700BF1C110020392A0020FA
:1054E000F8B5C3689A0704460F46C3F340062CD4A8
:1054F0005B071AD40B680BB983680B60E368DD07A0
:1055000044BFA3683B603D684CBF02260126002DC6
:105510003AD01F4B9B68AB420AD0D5F89830D807D9
:10552000C3F3800214D46FF0120600233B6025E021
:1055300002F09EFED5F898300028F0D1D907C3F3C9
:10554000C002F0D552B15B0708D46FF00F06ECE74C
:10555000002AFAD1C3F3C003002BF6D10023236045
:10556000D5F8843063B9C5E92044284602F0BDFE71
:10557000E36843F00403E3603B68A3603046F8BD92
:105580001C60C5F88440F0E76FF01506CDE700BF5A
:10559000FC1000200146014802F0C2BED0020020EB
:1055A000F0B589B004460020C4E920000E9D04F146
:1055B0008800C4E9220004F19000C4E924001DB36E
:1055C0002879002840F2011008BF0120C4F8980093
:1055D00000204FF0FF364FF0FF37CDE90330CDE923
:1055E0000100CDE90667094B00942046FFF762FDF4
:1055F00025B1296811B1204602F040FE204609B0CD
:10560000BDE8F04002F03DBE0120DFE7A9530000F5
:10561000C3897F2B12D80A4B1B6863B1094B90F9E1
:105620000E201B689A4209DB437BDB0606D1064B42
:10563000C31A18BF012303F0010070470023FAE7E3
:105640002C11002028110020B0010020044BC01AAA
:10565000044BC0105843044B01221A54704700BF3A
:10566000B0020020ABAAAAAA392A002070B50E4BBE
:105670000E4C1E7C06EB460304EBC3040546204695
:1056800002F089FF0A4B002228469A55FFF7C0FF17
:1056900048B1084B08491A68013A2046D317BDE8BB
:1056A000704000F027BB70BDFC100020B00200204D
:1056B000392A00202C1100204D56000038B50D4D20
:1056C0002B4653F8184F9C4200D004B9EC68AB68E5
:1056D00038B95A7BD20604D1A26912B9DA897F2A75
:1056E00005D89C4202D02046FFF7C0FF23466B61DD
:1056F00038BD00BFFC10002070B590F90D20437B31
:10570000002A014604DA03F07F03437302F019FE16
:105710004B7B154A63F07F0310464B7350F8183FDC
:10572000D469834208BF002323B9C1E90004216082
:10573000D1610CE091F90E5093F90E60B5420ED094
:10574000AE420CDD5868C1E90030016059609068D4
:10575000431A5842BDE870405841FFF7AFBF9C4222
:10576000E3D01B68E0E700BFFC10002070B490F9A4
:105770000D30427B002B29DBD30627D183692BBB5D
:10578000134962F07F0242730A4652F8184F94425E
:1057900018BF2346CC6923B9C0E900242060C86142
:1057A0000CE090F90E5093F90E60B5420AD0AE426B
:1057B00008DD5A68C0E900321060586070BC0020F3
:1057C000FFF77CBFA342E7D01B68E4E770BC7047DB
:1057D000FC10002008B590F90D20437B002A0146FB
:1057E00004DA03F07F03437302F0ABFD044B9868C7
:1057F000431A58425841BDE80840FFF75FBF00BF59
:10580000FC10002070B515461C46064602F0ABFDA4
:10581000B4F1FF3F08BFB5F1FF3F08D02A46234649
:1058200006F118000249BDE8704000F063BA70BD8F
:10583000758400002DE9F041002A437B0E460CBF21
:1058400010210821194204460AD10B43DD0903F057
:105850009F0211D14273082914D00120FFF72EFFB7
:105860001B4B9B68A3422CD1EFF305834BBB304607
:10587000BDE8F041FCF708BB03F01F03437302F0DF
:1058800060FDE8E7A36813B1204602F062FD04F171
:10589000180002F080FE04F158074FF00008A56DD3
:1058A000BD42DAD0002DD8D0284602F052FD05F1D5
:1058B000180002F070FEC5F878802846FFF756FF02
:1058C000EDE786F31188BFF36F8FBDE8F08100BF6D
:1058D000FC10002038B54FF02003EFF3118583F35F
:1058E0001288BFF36F8F104B104A9C681068A0425B
:1058F00006D1FFF7BBFE85F31188BFF36F8F38BD6C
:1059000000211B7C11600A4AD35C002BF3D0204697
:10591000FFF77EFE0028EED0637BDB0602D1204637
:10592000FFF7EAFE2046E4E7FC10002024110020E7
:10593000392A002070B50C480C4D86682E600C4644
:105940001146DDE904234FF02006EFF3118586F3BD
:105950001288BFF36F8F8068FFF754FF2046BDE8C1
:105960007040FCF791BA00BFFC1000202411002009
:10597000F8B504464FF02003EFF3118683F3128845
:10598000BFF36F8F437BDA0649B219D18569BDB980
:1059900003F07F03437302F0D4FC437B164A817308
:1059A00063F07F034373134653F8180F984218BFF0
:1059B0000546D0695DB9C4E900300460D46111E0E6
:1059C000A173002086F31188BFF36F8FF8BD95F99E
:1059D0000E70B9420BD08F4209DD6B68C4E90053E9
:1059E0001C606C600120FFF769FE0120EAE7A84215
:1059F000E1D02D68DEE700BFFC10002049B9EFF3CD
:105A0000058030B9054B5A699B689A4201D0FCF772
:105A10003BBA81F31188BFF36F8F7047FC100020F1
:105A200010B54FF02002EFF3118482F31288BFF318
:105A30006F8F427B510704D484F31188BFF36F8FBB
:105A400010BD22F004024273FFF790FE2146024887
:105A5000BDE81040FFF7D2BF3A2A00204FF02003E4
:105A6000EFF3118183F31288BFF36F8F044B9A68B1
:105A7000D37B013BD37381F31188BFF36F8F7047E2
:105A8000FC10002010B54FF02003EFF3118483F3D6
:105A90001288BFF36F8F084B9A68D37B0133D3739F
:105AA0000020FFF70BFE84F31188BFF36F8FBDE872
:105AB000104002F022BD00BFFC100020024B03F199
:105AC0001802C3E906227047FC100020F8B54FF019
:105AD0002003EFF3118583F31288BFF36F8F194909
